{
  "contractName": "LandRegistry",
  "abi": [
    {
      "inputs": [],
      "stateMutability": "nonpayable",
      "type": "constructor"
    },
    {
      "inputs": [
        {
          "internalType": "address",
          "name": "sender",
          "type": "address"
        },
        {
          "internalType": "uint256",
          "name": "tokenId",
          "type": "uint256"
        },
        {
          "internalType": "address",
          "name": "owner",
          "type": "address"
        }
      ],
      "name": "ERC721IncorrectOwner",
      "type": "error"
    },
    {
      "inputs": [
        {
          "internalType": "address",
          "name": "operator",
          "type": "address"
        },
        {
          "internalType": "uint256",
          "name": "tokenId",
          "type": "uint256"
        }
      ],
      "name": "ERC721InsufficientApproval",
      "type": "error"
    },
    {
      "inputs": [
        {
          "internalType": "address",
          "name": "approver",
          "type": "address"
        }
      ],
      "name": "ERC721InvalidApprover",
      "type": "error"
    },
    {
      "inputs": [
        {
          "internalType": "address",
          "name": "operator",
          "type": "address"
        }
      ],
      "name": "ERC721InvalidOperator",
      "type": "error"
    },
    {
      "inputs": [
        {
          "internalType": "address",
          "name": "owner",
          "type": "address"
        }
      ],
      "name": "ERC721InvalidOwner",
      "type": "error"
    },
    {
      "inputs": [
        {
          "internalType": "address",
          "name": "receiver",
          "type": "address"
        }
      ],
      "name": "ERC721InvalidReceiver",
      "type": "error"
    },
    {
      "inputs": [
        {
          "internalType": "address",
          "name": "sender",
          "type": "address"
        }
      ],
      "name": "ERC721InvalidSender",
      "type": "error"
    },
    {
      "inputs": [
        {
          "internalType": "uint256",
          "name": "tokenId",
          "type": "uint256"
        }
      ],
      "name": "ERC721NonexistentToken",
      "type": "error"
    },
    {
      "inputs": [
        {
          "internalType": "address",
          "name": "owner",
          "type": "address"
        }
      ],
      "name": "OwnableInvalidOwner",
      "type": "error"
    },
    {
      "inputs": [
        {
          "internalType": "address",
          "name": "account",
          "type": "address"
        }
      ],
      "name": "OwnableUnauthorizedAccount",
      "type": "error"
    },
    {
      "anonymous": false,
      "inputs": [
        {
          "indexed": true,
          "internalType": "address",
          "name": "owner",
          "type": "address"
        },
        {
          "indexed": true,
          "internalType": "address",
          "name": "approved",
          "type": "address"
        },
        {
          "indexed": true,
          "internalType": "uint256",
          "name": "tokenId",
          "type": "uint256"
        }
      ],
      "name": "Approval",
      "type": "event"
    },
    {
      "anonymous": false,
      "inputs": [
        {
          "indexed": true,
          "internalType": "address",
          "name": "owner",
          "type": "address"
        },
        {
          "indexed": true,
          "internalType": "address",
          "name": "operator",
          "type": "address"
        },
        {
          "indexed": false,
          "internalType": "bool",
          "name": "approved",
          "type": "bool"
        }
      ],
      "name": "ApprovalForAll",
      "type": "event"
    },
    {
      "anonymous": false,
      "inputs": [
        {
          "indexed": true,
          "internalType": "address",
          "name": "previousOwner",
          "type": "address"
        },
        {
          "indexed": true,
          "internalType": "address",
          "name": "newOwner",
          "type": "address"
        }
      ],
      "name": "OwnershipTransferred",
      "type": "event"
    },
    {
      "anonymous": false,
      "inputs": [
        {
          "indexed": true,
          "internalType": "address",
          "name": "from",
          "type": "address"
        },
        {
          "indexed": true,
          "internalType": "address",
          "name": "to",
          "type": "address"
        },
        {
          "indexed": true,
          "internalType": "uint256",
          "name": "tokenId",
          "type": "uint256"
        }
      ],
      "name": "Transfer",
      "type": "event"
    },
    {
      "inputs": [
        {
          "internalType": "address",
          "name": "",
          "type": "address"
        }
      ],
      "name": "admins",
      "outputs": [
        {
          "internalType": "address",
          "name": "adminAddress",
          "type": "address"
        },
        {
          "internalType": "string",
          "name": "city",
          "type": "string"
        },
        {
          "internalType": "string",
          "name": "district",
          "type": "string"
        },
        {
          "internalType": "string",
          "name": "state",
          "type": "string"
        }
      ],
      "stateMutability": "view",
      "type": "function"
    },
    {
      "inputs": [
        {
          "internalType": "address",
          "name": "to",
          "type": "address"
        },
        {
          "internalType": "uint256",
          "name": "tokenId",
          "type": "uint256"
        }
      ],
      "name": "approve",
      "outputs": [],
      "stateMutability": "nonpayable",
      "type": "function"
    },
    {
      "inputs": [
        {
          "internalType": "address",
          "name": "owner",
          "type": "address"
        }
      ],
      "name": "balanceOf",
      "outputs": [
        {
          "internalType": "uint256",
          "name": "",
          "type": "uint256"
        }
      ],
      "stateMutability": "view",
      "type": "function"
    },
    {
      "inputs": [
        {
          "internalType": "uint256",
          "name": "tokenId",
          "type": "uint256"
        }
      ],
      "name": "getApproved",
      "outputs": [
        {
          "internalType": "address",
          "name": "",
          "type": "address"
        }
      ],
      "stateMutability": "view",
      "type": "function"
    },
    {
      "inputs": [
        {
          "internalType": "address",
          "name": "owner",
          "type": "address"
        },
        {
          "internalType": "address",
          "name": "operator",
          "type": "address"
        }
      ],
      "name": "isApprovedForAll",
      "outputs": [
        {
          "internalType": "bool",
          "name": "",
          "type": "bool"
        }
      ],
      "stateMutability": "view",
      "type": "function"
    },
    {
      "inputs": [
        {
          "internalType": "string",
          "name": "",
          "type": "string"
        },
        {
          "internalType": "string",
          "name": "",
          "type": "string"
        },
        {
          "internalType": "string",
          "name": "",
          "type": "string"
        },
        {
          "internalType": "uint256",
          "name": "",
          "type": "uint256"
        }
      ],
      "name": "landDetalsMap",
      "outputs": [
        {
          "internalType": "address",
          "name": "owner",
          "type": "address"
        },
        {
          "internalType": "address",
          "name": "admin",
          "type": "address"
        },
        {
          "internalType": "uint256",
          "name": "propertyId",
          "type": "uint256"
        },
        {
          "internalType": "uint256",
          "name": "surveyNumber",
          "type": "uint256"
        },
        {
          "internalType": "uint256",
          "name": "index",
          "type": "uint256"
        },
        {
          "internalType": "bool",
          "name": "registered",
          "type": "bool"
        },
        {
          "internalType": "uint256",
          "name": "marketValue",
          "type": "uint256"
        },
        {
          "internalType": "bool",
          "name": "markAvailable",
          "type": "bool"
        },
        {
          "internalType": "uint256",
          "name": "noOfRequests",
          "type": "uint256"
        },
        {
          "internalType": "uint256",
          "name": "sqft",
          "type": "uint256"
        }
      ],
      "stateMutability": "view",
      "type": "function"
    },
    {
      "inputs": [],
      "name": "name",
      "outputs": [
        {
          "internalType": "string",
          "name": "",
          "type": "string"
        }
      ],
      "stateMutability": "view",
      "type": "function"
    },
    {
      "inputs": [],
      "name": "owner",
      "outputs": [
        {
          "internalType": "address",
          "name": "",
          "type": "address"
        }
      ],
      "stateMutability": "view",
      "type": "function"
    },
    {
      "inputs": [
        {
          "internalType": "address",
          "name": "",
          "type": "address"
        },
        {
          "internalType": "uint256",
          "name": "",
          "type": "uint256"
        }
      ],
      "name": "ownerMapsProperty",
      "outputs": [
        {
          "internalType": "uint256",
          "name": "surveyNumber",
          "type": "uint256"
        },
        {
          "internalType": "string",
          "name": "state",
          "type": "string"
        },
        {
          "internalType": "string",
          "name": "district",
          "type": "string"
        },
        {
          "internalType": "string",
          "name": "city",
          "type": "string"
        }
      ],
      "stateMutability": "view",
      "type": "function"
    },
    {
      "inputs": [
        {
          "internalType": "uint256",
          "name": "tokenId",
          "type": "uint256"
        }
      ],
      "name": "ownerOf",
      "outputs": [
        {
          "internalType": "address",
          "name": "",
          "type": "address"
        }
      ],
      "stateMutability": "view",
      "type": "function"
    },
    {
      "inputs": [],
      "name": "renounceOwnership",
      "outputs": [],
      "stateMutability": "nonpayable",
      "type": "function"
    },
    {
      "inputs": [
        {
          "internalType": "address",
          "name": "",
          "type": "address"
        },
        {
          "internalType": "uint256",
          "name": "",
          "type": "uint256"
        }
      ],
      "name": "requestedLands",
      "outputs": [
        {
          "internalType": "uint256",
          "name": "surveyNumber",
          "type": "uint256"
        },
        {
          "internalType": "string",
          "name": "state",
          "type": "string"
        },
        {
          "internalType": "string",
          "name": "district",
          "type": "string"
        },
        {
          "internalType": "string",
          "name": "city",
          "type": "string"
        }
      ],
      "stateMutability": "view",
      "type": "function"
    },
    {
      "inputs": [
        {
          "internalType": "address",
          "name": "from",
          "type": "address"
        },
        {
          "internalType": "address",
          "name": "to",
          "type": "address"
        },
        {
          "internalType": "uint256",
          "name": "tokenId",
          "type": "uint256"
        }
      ],
      "name": "safeTransferFrom",
      "outputs": [],
      "stateMutability": "nonpayable",
      "type": "function"
    },
    {
      "inputs": [
        {
          "internalType": "address",
          "name": "from",
          "type": "address"
        },
        {
          "internalType": "address",
          "name": "to",
          "type": "address"
        },
        {
          "internalType": "uint256",
          "name": "tokenId",
          "type": "uint256"
        },
        {
          "internalType": "bytes",
          "name": "data",
          "type": "bytes"
        }
      ],
      "name": "safeTransferFrom",
      "outputs": [],
      "stateMutability": "nonpayable",
      "type": "function"
    },
    {
      "inputs": [
        {
          "internalType": "address",
          "name": "operator",
          "type": "address"
        },
        {
          "internalType": "bool",
          "name": "approved",
          "type": "bool"
        }
      ],
      "name": "setApprovalForAll",
      "outputs": [],
      "stateMutability": "nonpayable",
      "type": "function"
    },
    {
      "inputs": [],
      "name": "superAdmin",
      "outputs": [
        {
          "internalType": "address",
          "name": "",
          "type": "address"
        }
      ],
      "stateMutability": "view",
      "type": "function"
    },
    {
      "inputs": [
        {
          "internalType": "bytes4",
          "name": "interfaceId",
          "type": "bytes4"
        }
      ],
      "name": "supportsInterface",
      "outputs": [
        {
          "internalType": "bool",
          "name": "",
          "type": "bool"
        }
      ],
      "stateMutability": "view",
      "type": "function"
    },
    {
      "inputs": [],
      "name": "symbol",
      "outputs": [
        {
          "internalType": "string",
          "name": "",
          "type": "string"
        }
      ],
      "stateMutability": "view",
      "type": "function"
    },
    {
      "inputs": [
        {
          "internalType": "uint256",
          "name": "tokenId",
          "type": "uint256"
        }
      ],
      "name": "tokenURI",
      "outputs": [
        {
          "internalType": "string",
          "name": "",
          "type": "string"
        }
      ],
      "stateMutability": "view",
      "type": "function"
    },
    {
      "inputs": [],
      "name": "totalAdmins",
      "outputs": [
        {
          "internalType": "uint256",
          "name": "",
          "type": "uint256"
        }
      ],
      "stateMutability": "view",
      "type": "function"
    },
    {
      "inputs": [
        {
          "internalType": "address",
          "name": "from",
          "type": "address"
        },
        {
          "internalType": "address",
          "name": "to",
          "type": "address"
        },
        {
          "internalType": "uint256",
          "name": "tokenId",
          "type": "uint256"
        }
      ],
      "name": "transferFrom",
      "outputs": [],
      "stateMutability": "nonpayable",
      "type": "function"
    },
    {
      "inputs": [
        {
          "internalType": "address",
          "name": "newOwner",
          "type": "address"
        }
      ],
      "name": "transferOwnership",
      "outputs": [],
      "stateMutability": "nonpayable",
      "type": "function"
    },
    {
      "inputs": [
        {
          "internalType": "address",
          "name": "",
          "type": "address"
        }
      ],
      "name": "userProfile",
      "outputs": [
        {
          "internalType": "address",
          "name": "userAddr",
          "type": "address"
        },
        {
          "internalType": "string",
          "name": "fullName",
          "type": "string"
        },
        {
          "internalType": "string",
          "name": "gender",
          "type": "string"
        },
        {
          "internalType": "string",
          "name": "email",
          "type": "string"
        },
        {
          "internalType": "uint256",
          "name": "contact",
          "type": "uint256"
        },
        {
          "internalType": "string",
          "name": "residentialAddr",
          "type": "string"
        },
        {
          "internalType": "uint256",
          "name": "totalIndices",
          "type": "uint256"
        },
        {
          "internalType": "uint256",
          "name": "requestIndices",
          "type": "uint256"
        }
      ],
      "stateMutability": "view",
      "type": "function"
    },
    {
      "inputs": [
        {
          "internalType": "address",
          "name": "_adminAddr",
          "type": "address"
        },
        {
          "internalType": "string",
          "name": "_state",
          "type": "string"
        },
        {
          "internalType": "string",
          "name": "_district",
          "type": "string"
        },
        {
          "internalType": "string",
          "name": "_city",
          "type": "string"
        }
      ],
      "name": "addAdmin",
      "outputs": [],
      "stateMutability": "nonpayable",
      "type": "function"
    },
    {
      "inputs": [],
      "name": "isAdmin",
      "outputs": [
        {
          "internalType": "bool",
          "name": "",
          "type": "bool"
        }
      ],
      "stateMutability": "view",
      "type": "function"
    },
    {
      "inputs": [
        {
          "internalType": "string",
          "name": "_state",
          "type": "string"
        },
        {
          "internalType": "string",
          "name": "_district",
          "type": "string"
        },
        {
          "internalType": "string",
          "name": "_city",
          "type": "string"
        },
        {
          "internalType": "uint256",
          "name": "_propertyId",
          "type": "uint256"
        },
        {
          "internalType": "uint256",
          "name": "_surveyNo",
          "type": "uint256"
        },
        {
          "internalType": "address",
          "name": "_owner",
          "type": "address"
        },
        {
          "internalType": "uint256",
          "name": "_marketValue",
          "type": "uint256"
        },
        {
          "internalType": "uint256",
          "name": "_sqft",
          "type": "uint256"
        }
      ],
      "name": "registerLand",
      "outputs": [],
      "stateMutability": "nonpayable",
      "type": "function"
    },
    {
      "inputs": [
        {
          "internalType": "string",
          "name": "_fullName",
          "type": "string"
        },
        {
          "internalType": "string",
          "name": "_gender",
          "type": "string"
        },
        {
          "internalType": "string",
          "name": "_email",
          "type": "string"
        },
        {
          "internalType": "uint256",
          "name": "_contact",
          "type": "uint256"
        },
        {
          "internalType": "string",
          "name": "_residentialAddr",
          "type": "string"
        }
      ],
      "name": "setUserProfile",
      "outputs": [],
      "stateMutability": "nonpayable",
      "type": "function"
    },
    {
      "inputs": [
        {
          "internalType": "uint256",
          "name": "indexNo",
          "type": "uint256"
        }
      ],
      "name": "markMyPropertyAvailable",
      "outputs": [],
      "stateMutability": "nonpayable",
      "type": "function"
    },
    {
      "inputs": [
        {
          "internalType": "string",
          "name": "_state",
          "type": "string"
        },
        {
          "internalType": "string",
          "name": "_district",
          "type": "string"
        },
        {
          "internalType": "string",
          "name": "_city",
          "type": "string"
        },
        {
          "internalType": "uint256",
          "name": "_surveyNo",
          "type": "uint256"
        }
      ],
      "name": "RequestForBuy",
      "outputs": [],
      "stateMutability": "nonpayable",
      "type": "function"
    },
    {
      "inputs": [
        {
          "internalType": "uint256",
          "name": "_index",
          "type": "uint256"
        },
        {
          "internalType": "uint256",
          "name": "_reqNo",
          "type": "uint256"
        }
      ],
      "name": "AcceptRequest",
      "outputs": [],
      "stateMutability": "nonpayable",
      "type": "function"
    },
    {
      "inputs": [
        {
          "internalType": "string",
          "name": "_state",
          "type": "string"
        },
        {
          "internalType": "string",
          "name": "_district",
          "type": "string"
        },
        {
          "internalType": "string",
          "name": "_city",
          "type": "string"
        },
        {
          "internalType": "uint256",
          "name": "_surveyNo",
          "type": "uint256"
        }
      ],
      "name": "getLandDetails",
      "outputs": [
        {
          "internalType": "address",
          "name": "",
          "type": "address"
        },
        {
          "internalType": "uint256",
          "name": "",
          "type": "uint256"
        },
        {
          "internalType": "uint256",
          "name": "",
          "type": "uint256"
        },
        {
          "internalType": "uint256",
          "name": "",
          "type": "uint256"
        },
        {
          "internalType": "uint256",
          "name": "",
          "type": "uint256"
        }
      ],
      "stateMutability": "view",
      "type": "function"
    },
    {
      "inputs": [
        {
          "internalType": "string",
          "name": "_state",
          "type": "string"
        },
        {
          "internalType": "string",
          "name": "_district",
          "type": "string"
        },
        {
          "internalType": "string",
          "name": "_city",
          "type": "string"
        },
        {
          "internalType": "uint256",
          "name": "_surveyNo",
          "type": "uint256"
        }
      ],
      "name": "getRequestCnt_propId",
      "outputs": [
        {
          "internalType": "uint256",
          "name": "",
          "type": "uint256"
        },
        {
          "internalType": "uint256",
          "name": "",
          "type": "uint256"
        }
      ],
      "stateMutability": "view",
      "type": "function"
    },
    {
      "inputs": [
        {
          "internalType": "string",
          "name": "_state",
          "type": "string"
        },
        {
          "internalType": "string",
          "name": "_district",
          "type": "string"
        },
        {
          "internalType": "string",
          "name": "_city",
          "type": "string"
        },
        {
          "internalType": "uint256",
          "name": "_surveyNo",
          "type": "uint256"
        },
        {
          "internalType": "uint256",
          "name": "_reqIndex",
          "type": "uint256"
        }
      ],
      "name": "getRequesterDetail",
      "outputs": [
        {
          "internalType": "address",
          "name": "",
          "type": "address"
        }
      ],
      "stateMutability": "view",
      "type": "function"
    },
    {
      "inputs": [
        {
          "internalType": "string",
          "name": "_state",
          "type": "string"
        },
        {
          "internalType": "string",
          "name": "_district",
          "type": "string"
        },
        {
          "internalType": "string",
          "name": "_city",
          "type": "string"
        },
        {
          "internalType": "uint256",
          "name": "_surveyNo",
          "type": "uint256"
        }
      ],
      "name": "isAvailable",
      "outputs": [
        {
          "internalType": "bool",
          "name": "",
          "type": "bool"
        }
      ],
      "stateMutability": "view",
      "type": "function"
    },
    {
      "inputs": [
        {
          "internalType": "uint256",
          "name": "indx",
          "type": "uint256"
        }
      ],
      "name": "getOwnerOwns",
      "outputs": [
        {
          "internalType": "string",
          "name": "",
          "type": "string"
        },
        {
          "internalType": "string",
          "name": "",
          "type": "string"
        },
        {
          "internalType": "string",
          "name": "",
          "type": "string"
        },
        {
          "internalType": "uint256",
          "name": "",
          "type": "uint256"
        }
      ],
      "stateMutability": "view",
      "type": "function"
    },
    {
      "inputs": [
        {
          "internalType": "uint256",
          "name": "indx",
          "type": "uint256"
        }
      ],
      "name": "getRequestedLands",
      "outputs": [
        {
          "internalType": "string",
          "name": "",
          "type": "string"
        },
        {
          "internalType": "string",
          "name": "",
          "type": "string"
        },
        {
          "internalType": "string",
          "name": "",
          "type": "string"
        },
        {
          "internalType": "uint256",
          "name": "",
          "type": "uint256"
        }
      ],
      "stateMutability": "view",
      "type": "function"
    },
    {
      "inputs": [],
      "name": "getUserProfile",
      "outputs": [
        {
          "internalType": "string",
          "name": "",
          "type": "string"
        },
        {
          "internalType": "string",
          "name": "",
          "type": "string"
        },
        {
          "internalType": "string",
          "name": "",
          "type": "string"
        },
        {
          "internalType": "uint256",
          "name": "",
          "type": "uint256"
        },
        {
          "internalType": "string",
          "name": "",
          "type": "string"
        }
      ],
      "stateMutability": "view",
      "type": "function"
    },
    {
      "inputs": [],
      "name": "getIndices",
      "outputs": [
        {
          "internalType": "uint256",
          "name": "",
          "type": "uint256"
        },
        {
          "internalType": "uint256",
          "name": "",
          "type": "uint256"
        }
      ],
      "stateMutability": "view",
      "type": "function"
    },
    {
      "inputs": [
        {
          "internalType": "string",
          "name": "_state",
          "type": "string"
        },
        {
          "internalType": "string",
          "name": "_district",
          "type": "string"
        },
        {
          "internalType": "string",
          "name": "_city",
          "type": "string"
        },
        {
          "internalType": "uint256",
          "name": "_surveyNo",
          "type": "uint256"
        }
      ],
      "name": "didIRequested",
      "outputs": [
        {
          "internalType": "bool",
          "name": "",
          "type": "bool"
        }
      ],
      "stateMutability": "view",
      "type": "function"
    }
  ],
  "bytecode": "0x608060405234801562000010575f80fd5b50336040518060400160405280600f81526020017f4c616e6452656769737472794e465400000000000000000000000000000000008152506040518060400160405280600581526020017f4c524e4654000000000000000000000000000000000000000000000000000000815250815f90816200008e919062000495565b508060019081620000a0919062000495565b5050505f73ffffffffffffffffffffffffffffffffffffffff168173ffffffffffffffffffffffffffffffffffffffff160362000116575f6040517f1e4fbdf70000000000000000000000000000000000000000000000000000000081526004016200010d9190620005bc565b60405180910390fd5b62000127816200016e60201b60201c565b503360075f6101000a81548173ffffffffffffffffffffffffffffffffffffffff021916908373ffffffffffffffffffffffffffffffffffffffff160217905550620005d7565b5f60065f9054906101000a900473ffffffffffffffffffffffffffffffffffffffff1690508160065f6101000a81548173ffffffffffffffffffffffffffffffffffffffff021916908373ffffffffffffffffffffffffffffffffffffffff1602179055508173ffffffffffffffffffffffffffffffffffffffff168173ffffffffffffffffffffffffffffffffffffffff167f8be0079c531659141344cd1fd0a4f28419497f9722a3daafe3b4186f6b6457e060405160405180910390a35050565b5f81519050919050565b7f4e487b71000000000000000000000000000000000000000000000000000000005f52604160045260245ffd5b7f4e487b71000000000000000000000000000000000000000000000000000000005f52602260045260245ffd5b5f6002820490506001821680620002ad57607f821691505b602082108103620002c357620002c262000268565b5b50919050565b5f819050815f5260205f209050919050565b5f6020601f8301049050919050565b5f82821b905092915050565b5f60088302620003277fffffffffffffffffffffffffffffffffffffffffffffffffffffffffffffffff82620002ea565b620003338683620002ea565b95508019841693508086168417925050509392505050565b5f819050919050565b5f819050919050565b5f6200037d6200037762000371846200034b565b62000354565b6200034b565b9050919050565b5f819050919050565b62000398836200035d565b620003b0620003a78262000384565b848454620002f6565b825550505050565b5f90565b620003c6620003b8565b620003d38184846200038d565b505050565b5b81811015620003fa57620003ee5f82620003bc565b600181019050620003d9565b5050565b601f82111562000449576200041381620002c9565b6200041e84620002db565b810160208510156200042e578190505b620004466200043d85620002db565b830182620003d8565b50505b505050565b5f82821c905092915050565b5f6200046b5f19846008026200044e565b1980831691505092915050565b5f6200048583836200045a565b9150826002028217905092915050565b620004a08262000231565b67ffffffffffffffff811115620004bc57620004bb6200023b565b5b620004c8825462000295565b620004d5828285620003fe565b5f60209050601f8311600181146200050b575f8415620004f6578287015190505b62000502858262000478565b86555062000571565b601f1984166200051b86620002c9565b5f5b8281101562000544578489015182556001820191506020850194506020810190506200051d565b8683101562000564578489015162000560601f8916826200045a565b8355505b6001600288020188555050505b505050505050565b5f73ffffffffffffffffffffffffffffffffffffffff82169050919050565b5f620005a48262000579565b9050919050565b620005b68162000598565b82525050565b5f602082019050620005d15f830184620005ab565b92915050565b616c5480620005e55f395ff3fe608060405234801561000f575f80fd5b506004361061023b575f3560e01c80636f61c74411610139578063bfde241c116100b6578063e331ad7c1161007a578063e331ad7c14610744578063e985e9c514610778578063eaec23fa146107a8578063eb68048b146107d8578063f2fde38b146107f65761023b565b8063bfde241c14610678578063c87b56dd14610694578063d06efd67146106c4578063d1dbeff2146106f5578063d41cc5c8146107285761023b565b806395d89b41116100fd57806395d89b41146105d4578063992369da146105f2578063a22cb46514610622578063b6db75a01461063e578063b88d4fde1461065c5761023b565b80636f61c7441461053e57806370a0823114610560578063715018a6146105905780638a80e4e41461059a5780638da5cb5b146105b65761023b565b806329575f6a116101c7578063429b62e51161018b578063429b62e51461046d57806344e05734146104a05780635863056d146104bc5780636352211e146104db5780636d1b9a8e1461050b5761023b565b806329575f6a146103b45780632a52ee86146103d25780632ca305f3146103ee5780633bbd43b31461042157806342842e0e146104515761023b565b8063095ea7b31161020e578063095ea7b3146102d95780630e2279af146102f55780631555ff1e146103285780631c8e89621461036157806323b872dd146103985761023b565b806301ffc9a71461023f57806303825d6c1461026f57806306fdde031461028b578063081812fc146102a9575b5f80fd5b61025960048036038101906102549190615510565b610812565b6040516102669190615555565b60405180910390f35b61028960048036038101906102849190615704565b6108f3565b005b6102936109d0565b6040516102a09190615836565b60405180910390f35b6102c360048036038101906102be9190615889565b610a5f565b6040516102d091906158c3565b60405180910390f35b6102f360048036038101906102ee91906158dc565b610a7a565b005b61030f600480360381019061030a91906158dc565b610a90565b60405161031f9493929190615929565b60405180910390f35b610342600480360381019061033d9190615981565b610c59565b6040516103589a99989796959493929190615a39565b60405180910390f35b61037b60048036038101906103769190615ad3565b610d68565b60405161038f989796959493929190615afe565b60405180910390f35b6103b260048036038101906103ad9190615b96565b610fe3565b005b6103bc6110e2565b6040516103c991906158c3565b60405180910390f35b6103ec60048036038101906103e79190615be6565b611107565b005b61040860048036038101906104039190615889565b611748565b6040516104189493929190615ceb565b60405180910390f35b61043b60048036038101906104369190615d43565b611a42565b60405161044891906158c3565b60405180910390f35b61046b60048036038101906104669190615b96565b611aec565b005b61048760048036038101906104829190615ad3565b611b0b565b6040516104979493929190615e0e565b60405180910390f35b6104ba60048036038101906104b59190615889565b611ce8565b005b6104c4612101565b6040516104d2929190615e66565b60405180910390f35b6104f560048036038101906104f09190615889565b612197565b60405161050291906158c3565b60405180910390f35b61052560048036038101906105209190615889565b6121a8565b6040516105359493929190615ceb565b60405180910390f35b6105466124a2565b604051610557959493929190615e8d565b60405180910390f35b61057a60048036038101906105759190615ad3565b612831565b6040516105879190615efa565b60405180910390f35b6105986128e7565b005b6105b460048036038101906105af9190615981565b6128fa565b005b6105be612bac565b6040516105cb91906158c3565b60405180910390f35b6105dc612bd4565b6040516105e99190615836565b60405180910390f35b61060c60048036038101906106079190615981565b612c64565b6040516106199190615555565b60405180910390f35b61063c60048036038101906106379190615f3d565b612ce9565b005b610646612cff565b6040516106539190615555565b60405180910390f35b61067660048036038101906106719190616019565b612d92565b005b610692600480360381019061068d9190616099565b612daf565b005b6106ae60048036038101906106a99190615889565b612e48565b6040516106bb9190615836565b60405180910390f35b6106de60048036038101906106d99190615981565b612eae565b6040516106ec929190615e66565b60405180910390f35b61070f600480360381019061070a91906158dc565b612f99565b60405161071f9493929190615929565b60405180910390f35b610742600480360381019061073d9190616180565b613162565b005b61075e60048036038101906107599190615981565b614003565b60405161076f9594939291906161be565b60405180910390f35b610792600480360381019061078d919061620f565b614261565b60405161079f9190615555565b60405180910390f35b6107c260048036038101906107bd9190615981565b6142ef565b6040516107cf9190615555565b60405180910390f35b6107e0614410565b6040516107ed9190615efa565b60405180910390f35b610810600480360381019061080b9190615ad3565b614416565b005b5f7f80ac58cd000000000000000000000000000000000000000000000000000000007bffffffffffffffffffffffffffffffffffffffffffffffffffffffff1916827bffffffffffffffffffffffffffffffffffffffffffffffffffffffff191614806108dc57507f5b5e139f000000000000000000000000000000000000000000000000000000007bffffffffffffffffffffffffffffffffffffffffffffffffffffffff1916827bffffffffffffffffffffffffffffffffffffffffffffffffffffffff1916145b806108ec57506108eb8261449a565b5b9050919050565b6108fb614503565b5f60095f8673ffffffffffffffffffffffffffffffffffffffff1673ffffffffffffffffffffffffffffffffffffffff1681526020019081526020015f20905060085f81548092919061094d9061627a565b919050555084815f015f6101000a81548173ffffffffffffffffffffffffffffffffffffffff021916908373ffffffffffffffffffffffffffffffffffffffff160217905550818160010190816109a491906164bb565b50828160020190816109b691906164bb565b50838160030190816109c891906164bb565b505050505050565b60605f80546109de906162ee565b80601f0160208091040260200160405190810160405280929190818152602001828054610a0a906162ee565b8015610a555780601f10610a2c57610100808354040283529160200191610a55565b820191905f5260205f20905b815481529060010190602001808311610a3857829003601f168201915b5050505050905090565b5f610a698261458a565b50610a7382614610565b9050919050565b610a8c8282610a87614649565b614650565b5050565b600b602052815f5260405f20602052805f5260405f205f9150915050805f015490806001018054610ac0906162ee565b80601f0160208091040260200160405190810160405280929190818152602001828054610aec906162ee565b8015610b375780601f10610b0e57610100808354040283529160200191610b37565b820191905f5260205f20905b815481529060010190602001808311610b1a57829003601f168201915b505050505090806002018054610b4c906162ee565b80601f0160208091040260200160405190810160405280929190818152602001828054610b78906162ee565b8015610bc35780601f10610b9a57610100808354040283529160200191610bc3565b820191905f5260205f20905b815481529060010190602001808311610ba657829003601f168201915b505050505090806003018054610bd8906162ee565b80601f0160208091040260200160405190810160405280929190818152602001828054610c04906162ee565b8015610c4f5780601f10610c2657610100808354040283529160200191610c4f565b820191905f5260205f20905b815481529060010190602001808311610c3257829003601f168201915b5050505050905084565b600c848051602081018201805184825260208301602085012081835280955050505050508380516020810182018051848252602083016020850120818352809550505050505082805160208101820180518482526020830160208501208183528095505050505050602052805f5260405f205f93509350505050805f015f9054906101000a900473ffffffffffffffffffffffffffffffffffffffff1690806001015f9054906101000a900473ffffffffffffffffffffffffffffffffffffffff1690806002015490806003015490806004015490806005015f9054906101000a900460ff1690806006015490806007015f9054906101000a900460ff169080600901549080600a015490508a565b600d602052805f5260405f205f91509050805f015f9054906101000a900473ffffffffffffffffffffffffffffffffffffffff1690806001018054610dac906162ee565b80601f0160208091040260200160405190810160405280929190818152602001828054610dd8906162ee565b8015610e235780601f10610dfa57610100808354040283529160200191610e23565b820191905f5260205f20905b815481529060010190602001808311610e0657829003601f168201915b505050505090806002018054610e38906162ee565b80601f0160208091040260200160405190810160405280929190818152602001828054610e64906162ee565b8015610eaf5780601f10610e8657610100808354040283529160200191610eaf565b820191905f5260205f20905b815481529060010190602001808311610e9257829003601f168201915b505050505090806003018054610ec4906162ee565b80601f0160208091040260200160405190810160405280929190818152602001828054610ef0906162ee565b8015610f3b5780601f10610f1257610100808354040283529160200191610f3b565b820191905f5260205f20905b815481529060010190602001808311610f1e57829003601f168201915b505050505090806004015490806005018054610f56906162ee565b80601f0160208091040260200160405190810160405280929190818152602001828054610f82906162ee565b8015610fcd5780601f10610fa457610100808354040283529160200191610fcd565b820191905f5260205f20905b815481529060010190602001808311610fb057829003601f168201915b5050505050908060060154908060070154905088565b5f73ffffffffffffffffffffffffffffffffffffffff168273ffffffffffffffffffffffffffffffffffffffff1603611053575f6040517f64a0ae9200000000000000000000000000000000000000000000000000000000815260040161104a91906158c3565b60405180910390fd5b5f6110668383611061614649565b614662565b90508373ffffffffffffffffffffffffffffffffffffffff168173ffffffffffffffffffffffffffffffffffffffff16146110dc578382826040517f64283d7b0000000000000000000000000000000000000000000000000000000081526004016110d39392919061658a565b60405180910390fd5b50505050565b60075f9054906101000a900473ffffffffffffffffffffffffffffffffffffffff1681565b3373ffffffffffffffffffffffffffffffffffffffff1660095f3373ffffffffffffffffffffffffffffffffffffffff1673ffffffffffffffffffffffffffffffffffffffff1681526020019081526020015f205f015f9054906101000a900473ffffffffffffffffffffffffffffffffffffffff1673ffffffffffffffffffffffffffffffffffffffff16146111d3576040517f08c379a00000000000000000000000000000000000000000000000000000000081526004016111ca90616609565b60405180910390fd5b876040516020016111e49190616661565b6040516020818303038152906040528051906020012060095f3373ffffffffffffffffffffffffffffffffffffffff1673ffffffffffffffffffffffffffffffffffffffff1681526020019081526020015f2060030160405160200161124a91906166f7565b604051602081830303815290604052805190602001201480156112f75750866040516020016112799190616661565b6040516020818303038152906040528051906020012060095f3373ffffffffffffffffffffffffffffffffffffffff1673ffffffffffffffffffffffffffffffffffffffff1681526020019081526020015f206002016040516020016112df91906166f7565b60405160208183030381529060405280519060200120145b801561138d57508560405160200161130f9190616661565b6040516020818303038152906040528051906020012060095f3373ffffffffffffffffffffffffffffffffffffffff1673ffffffffffffffffffffffffffffffffffffffff1681526020019081526020015f2060010160405160200161137591906166f7565b60405160208183030381529060405280519060200120145b6113cc576040517f08c379a00000000000000000000000000000000000000000000000000000000081526004016113c39061677d565b60405180910390fd5b600c886040516113dc9190616661565b9081526020016040518091039020876040516113f89190616661565b9081526020016040518091039020866040516114149190616661565b90815260200160405180910390205f8581526020019081526020015f206005015f9054906101000a900460ff1615611481576040517f08c379a00000000000000000000000000000000000000000000000000000000081526004016114789061680b565b60405180910390fd5b5f600c896040516114929190616661565b9081526020016040518091039020886040516114ae9190616661565b9081526020016040518091039020876040516114ca9190616661565b90815260200160405180910390205f8681526020019081526020015f2090505f600a5f8673ffffffffffffffffffffffffffffffffffffffff1673ffffffffffffffffffffffffffffffffffffffff1681526020019081526020015f205f600d5f8873ffffffffffffffffffffffffffffffffffffffff1673ffffffffffffffffffffffffffffffffffffffff1681526020019081526020015f206006015481526020019081526020015f20905084825f015f6101000a81548173ffffffffffffffffffffffffffffffffffffffff021916908373ffffffffffffffffffffffffffffffffffffffff16021790555033826001015f6101000a81548173ffffffffffffffffffffffffffffffffffffffff021916908373ffffffffffffffffffffffffffffffffffffffff160217905550868260020181905550858260030181905550600d5f8673ffffffffffffffffffffffffffffffffffffffff1673ffffffffffffffffffffffffffffffffffffffff1681526020019081526020015f206006015482600401819055506001826005015f6101000a81548160ff0219169083151502179055508382600601819055505f826007015f6101000a81548160ff0219169083151502179055508282600a018190555085815f0181905550898160010190816116b891906164bb565b50888160020190816116ca91906164bb565b50878160030190816116dc91906164bb565b50600d5f8673ffffffffffffffffffffffffffffffffffffffff1673ffffffffffffffffffffffffffffffffffffffff1681526020019081526020015f206006015f81548092919061172d9061627a565b919050555061173c858861486d565b50505050505050505050565b60608060605f80600b5f3373ffffffffffffffffffffffffffffffffffffffff1673ffffffffffffffffffffffffffffffffffffffff1681526020019081526020015f205f8781526020019081526020015f205f015490505f600b5f3373ffffffffffffffffffffffffffffffffffffffff1673ffffffffffffffffffffffffffffffffffffffff1681526020019081526020015f205f8881526020019081526020015f2060010180546117fb906162ee565b80601f0160208091040260200160405190810160405280929190818152602001828054611827906162ee565b80156118725780601f1061184957610100808354040283529160200191611872565b820191905f5260205f20905b81548152906001019060200180831161185557829003601f168201915b505050505090505f600b5f3373ffffffffffffffffffffffffffffffffffffffff1673ffffffffffffffffffffffffffffffffffffffff1681526020019081526020015f205f8981526020019081526020015f2060020180546118d4906162ee565b80601f0160208091040260200160405190810160405280929190818152602001828054611900906162ee565b801561194b5780601f106119225761010080835404028352916020019161194b565b820191905f5260205f20905b81548152906001019060200180831161192e57829003601f168201915b505050505090505f600b5f3373ffffffffffffffffffffffffffffffffffffffff1673ffffffffffffffffffffffffffffffffffffffff1681526020019081526020015f205f8a81526020019081526020015f2060030180546119ad906162ee565b80601f01602080910402602001604051908101604052809291908181526020018280546119d9906162ee565b8015611a245780601f106119fb57610100808354040283529160200191611a24565b820191905f5260205f20905b815481529060010190602001808311611a0757829003601f168201915b50505050509050828282869750975097509750505050509193509193565b5f80600c87604051611a549190616661565b908152602001604051809103902086604051611a709190616661565b908152602001604051809103902085604051611a8c9190616661565b90815260200160405180910390205f8581526020019081526020015f206008015f8481526020019081526020015f205f015f9054906101000a900473ffffffffffffffffffffffffffffffffffffffff1690508091505095945050505050565b611b0683838360405180602001604052805f815250612d92565b505050565b6009602052805f5260405f205f91509050805f015f9054906101000a900473ffffffffffffffffffffffffffffffffffffffff1690806001018054611b4f906162ee565b80601f0160208091040260200160405190810160405280929190818152602001828054611b7b906162ee565b8015611bc65780601f10611b9d57610100808354040283529160200191611bc6565b820191905f5260205f20905b815481529060010190602001808311611ba957829003601f168201915b505050505090806002018054611bdb906162ee565b80601f0160208091040260200160405190810160405280929190818152602001828054611c07906162ee565b8015611c525780601f10611c2957610100808354040283529160200191611c52565b820191905f5260205f20905b815481529060010190602001808311611c3557829003601f168201915b505050505090806003018054611c67906162ee565b80601f0160208091040260200160405190810160405280929190818152602001828054611c93906162ee565b8015611cde5780601f10611cb557610100808354040283529160200191611cde565b820191905f5260205f20905b815481529060010190602001808311611cc157829003601f168201915b5050505050905084565b5f600a5f3373ffffffffffffffffffffffffffffffffffffffff1673ffffffffffffffffffffffffffffffffffffffff1681526020019081526020015f205f8381526020019081526020015f206001018054611d43906162ee565b80601f0160208091040260200160405190810160405280929190818152602001828054611d6f906162ee565b8015611dba5780601f10611d9157610100808354040283529160200191611dba565b820191905f5260205f20905b815481529060010190602001808311611d9d57829003601f168201915b505050505090505f600a5f3373ffffffffffffffffffffffffffffffffffffffff1673ffffffffffffffffffffffffffffffffffffffff1681526020019081526020015f205f8481526020019081526020015f206002018054611e1c906162ee565b80601f0160208091040260200160405190810160405280929190818152602001828054611e48906162ee565b8015611e935780601f10611e6a57610100808354040283529160200191611e93565b820191905f5260205f20905b815481529060010190602001808311611e7657829003601f168201915b505050505090505f600a5f3373ffffffffffffffffffffffffffffffffffffffff1673ffffffffffffffffffffffffffffffffffffffff1681526020019081526020015f205f8581526020019081526020015f206003018054611ef5906162ee565b80601f0160208091040260200160405190810160405280929190818152602001828054611f21906162ee565b8015611f6c5780601f10611f4357610100808354040283529160200191611f6c565b820191905f5260205f20905b815481529060010190602001808311611f4f57829003601f168201915b505050505090505f600a5f3373ffffffffffffffffffffffffffffffffffffffff1673ffffffffffffffffffffffffffffffffffffffff1681526020019081526020015f205f8681526020019081526020015f205f01549050600c84604051611fd59190616661565b908152602001604051809103902083604051611ff19190616661565b90815260200160405180910390208260405161200d9190616661565b90815260200160405180910390205f8281526020019081526020015f206007015f9054906101000a900460ff161561207a576040517f08c379a000000000000000000000000000000000000000000000000000000000815260040161207190616899565b60405180910390fd5b6001600c8560405161208c9190616661565b9081526020016040518091039020846040516120a89190616661565b9081526020016040518091039020836040516120c49190616661565b90815260200160405180910390205f8381526020019081526020015f206007015f6101000a81548160ff0219169083151502179055505050505050565b5f805f600d5f3373ffffffffffffffffffffffffffffffffffffffff1673ffffffffffffffffffffffffffffffffffffffff1681526020019081526020015f206006015490505f600d5f3373ffffffffffffffffffffffffffffffffffffffff1673ffffffffffffffffffffffffffffffffffffffff1681526020019081526020015f2060070154905081819350935050509091565b5f6121a18261458a565b9050919050565b60608060605f80600a5f3373ffffffffffffffffffffffffffffffffffffffff1673ffffffffffffffffffffffffffffffffffffffff1681526020019081526020015f205f8781526020019081526020015f205f015490505f600a5f3373ffffffffffffffffffffffffffffffffffffffff1673ffffffffffffffffffffffffffffffffffffffff1681526020019081526020015f205f8881526020019081526020015f20600101805461225b906162ee565b80601f0160208091040260200160405190810160405280929190818152602001828054612287906162ee565b80156122d25780601f106122a9576101008083540402835291602001916122d2565b820191905f5260205f20905b8154815290600101906020018083116122b557829003601f168201915b505050505090505f600a5f3373ffffffffffffffffffffffffffffffffffffffff1673ffffffffffffffffffffffffffffffffffffffff1681526020019081526020015f205f8981526020019081526020015f206002018054612334906162ee565b80601f0160208091040260200160405190810160405280929190818152602001828054612360906162ee565b80156123ab5780601f10612382576101008083540402835291602001916123ab565b820191905f5260205f20905b81548152906001019060200180831161238e57829003601f168201915b505050505090505f600a5f3373ffffffffffffffffffffffffffffffffffffffff1673ffffffffffffffffffffffffffffffffffffffff1681526020019081526020015f205f8a81526020019081526020015f20600301805461240d906162ee565b80601f0160208091040260200160405190810160405280929190818152602001828054612439906162ee565b80156124845780601f1061245b57610100808354040283529160200191612484565b820191905f5260205f20905b81548152906001019060200180831161246757829003601f168201915b50505050509050828282869750975097509750505050509193509193565b60608060605f60605f600d5f3373ffffffffffffffffffffffffffffffffffffffff1673ffffffffffffffffffffffffffffffffffffffff1681526020019081526020015f2060010180546124f6906162ee565b80601f0160208091040260200160405190810160405280929190818152602001828054612522906162ee565b801561256d5780601f106125445761010080835404028352916020019161256d565b820191905f5260205f20905b81548152906001019060200180831161255057829003601f168201915b505050505090505f600d5f3373ffffffffffffffffffffffffffffffffffffffff1673ffffffffffffffffffffffffffffffffffffffff1681526020019081526020015f2060020180546125c0906162ee565b80601f01602080910402602001604051908101604052809291908181526020018280546125ec906162ee565b80156126375780601f1061260e57610100808354040283529160200191612637565b820191905f5260205f20905b81548152906001019060200180831161261a57829003601f168201915b505050505090505f600d5f3373ffffffffffffffffffffffffffffffffffffffff1673ffffffffffffffffffffffffffffffffffffffff1681526020019081526020015f20600301805461268a906162ee565b80601f01602080910402602001604051908101604052809291908181526020018280546126b6906162ee565b80156127015780601f106126d857610100808354040283529160200191612701565b820191905f5260205f20905b8154815290600101906020018083116126e457829003601f168201915b505050505090505f600d5f3373ffffffffffffffffffffffffffffffffffffffff1673ffffffffffffffffffffffffffffffffffffffff1681526020019081526020015f206004015490505f600d5f3373ffffffffffffffffffffffffffffffffffffffff1673ffffffffffffffffffffffffffffffffffffffff1681526020019081526020015f206005018054612798906162ee565b80601f01602080910402602001604051908101604052809291908181526020018280546127c4906162ee565b801561280f5780601f106127e65761010080835404028352916020019161280f565b820191905f5260205f20905b8154815290600101906020018083116127f257829003601f168201915b5050505050905084848484849950995099509950995050505050509091929394565b5f8073ffffffffffffffffffffffffffffffffffffffff168273ffffffffffffffffffffffffffffffffffffffff16036128a2575f6040517f89c62b6400000000000000000000000000000000000000000000000000000000815260040161289991906158c3565b60405180910390fd5b60035f8373ffffffffffffffffffffffffffffffffffffffff1673ffffffffffffffffffffffffffffffffffffffff1681526020019081526020015f20549050919050565b6128ef614503565b6128f85f614960565b565b5f600c8560405161290b9190616661565b9081526020016040518091039020846040516129279190616661565b9081526020016040518091039020836040516129439190616661565b90815260200160405180910390205f8381526020019081526020015f209050806007015f9054906101000a900460ff166129b2576040517f08c379a00000000000000000000000000000000000000000000000000000000081526004016129a990616927565b60405180910390fd5b5f8160090154905033826008015f8381526020019081526020015f205f015f6101000a81548173ffffffffffffffffffffffffffffffffffffffff021916908373ffffffffffffffffffffffffffffffffffffffff160217905550600d5f3373ffffffffffffffffffffffffffffffffffffffff1673ffffffffffffffffffffffffffffffffffffffff1681526020019081526020015f2060070154826008015f8381526020019081526020015f2060010181905550816009015f815480929190612a7c9061627a565b91905055505f600b5f3373ffffffffffffffffffffffffffffffffffffffff1673ffffffffffffffffffffffffffffffffffffffff1681526020019081526020015f205f600d5f3373ffffffffffffffffffffffffffffffffffffffff1673ffffffffffffffffffffffffffffffffffffffff1681526020019081526020015f206007015481526020019081526020015f20905083815f018190555086816001019081612b2991906164bb565b5085816002019081612b3b91906164bb565b5084816003019081612b4d91906164bb565b50600d5f3373ffffffffffffffffffffffffffffffffffffffff1673ffffffffffffffffffffffffffffffffffffffff1681526020019081526020015f206007015f815480929190612b9e9061627a565b919050555050505050505050565b5f60065f9054906101000a900473ffffffffffffffffffffffffffffffffffffffff16905090565b606060018054612be3906162ee565b80601f0160208091040260200160405190810160405280929190818152602001828054612c0f906162ee565b8015612c5a5780601f10612c3157610100808354040283529160200191612c5a565b820191905f5260205f20905b815481529060010190602001808311612c3d57829003601f168201915b5050505050905090565b5f80600c86604051612c769190616661565b908152602001604051809103902085604051612c929190616661565b908152602001604051809103902084604051612cae9190616661565b90815260200160405180910390205f8481526020019081526020015f206007015f9054906101000a900460ff16905080915050949350505050565b612cfb612cf4614649565b8383614a23565b5050565b5f3373ffffffffffffffffffffffffffffffffffffffff1660095f3373ffffffffffffffffffffffffffffffffffffffff1673ffffffffffffffffffffffffffffffffffffffff1681526020019081526020015f205f015f9054906101000a900473ffffffffffffffffffffffffffffffffffffffff1673ffffffffffffffffffffffffffffffffffffffff1614905090565b612d9d848484610fe3565b612da984848484614b8c565b50505050565b5f600d5f3373ffffffffffffffffffffffffffffffffffffffff1673ffffffffffffffffffffffffffffffffffffffff1681526020019081526020015f20905085816001019081612e0091906164bb565b5084816002019081612e1291906164bb565b5083816003019081612e2491906164bb565b5082816004018190555081816005019081612e3f91906164bb565b50505050505050565b6060612e538261458a565b505f612e5d614d3e565b90505f815111612e7b5760405180602001604052805f815250612ea6565b80612e8584614d54565b604051602001612e96929190616945565b6040516020818303038152906040525b915050919050565b5f805f600c87604051612ec19190616661565b908152602001604051809103902086604051612edd9190616661565b908152602001604051809103902085604051612ef99190616661565b90815260200160405180910390205f8581526020019081526020015f206009015490505f600c88604051612f2d9190616661565b908152602001604051809103902087604051612f499190616661565b908152602001604051809103902086604051612f659190616661565b90815260200160405180910390205f8681526020019081526020015f20600201549050818193509350505094509492505050565b600a602052815f5260405f20602052805f5260405f205f9150915050805f015490806001018054612fc9906162ee565b80601f0160208091040260200160405190810160405280929190818152602001828054612ff5906162ee565b80156130405780601f1061301757610100808354040283529160200191613040565b820191905f5260205f20905b81548152906001019060200180831161302357829003601f168201915b505050505090806002018054613055906162ee565b80601f0160208091040260200160405190810160405280929190818152602001828054613081906162ee565b80156130cc5780601f106130a3576101008083540402835291602001916130cc565b820191905f5260205f20905b8154815290600101906020018083116130af57829003601f168201915b5050505050908060030180546130e1906162ee565b80601f016020809104026020016040519081016040528092919081815260200182805461310d906162ee565b80156131585780601f1061312f57610100808354040283529160200191613158565b820191905f5260205f20905b81548152906001019060200180831161313b57829003601f168201915b5050505050905084565b5f600a5f3373ffffffffffffffffffffffffffffffffffffffff1673ffffffffffffffffffffffffffffffffffffffff1681526020019081526020015f205f8481526020019081526020015f205f015490505f600a5f3373ffffffffffffffffffffffffffffffffffffffff1673ffffffffffffffffffffffffffffffffffffffff1681526020019081526020015f205f8581526020019081526020015f20600101805461320f906162ee565b80601f016020809104026020016040519081016040528092919081815260200182805461323b906162ee565b80156132865780601f1061325d57610100808354040283529160200191613286565b820191905f5260205f20905b81548152906001019060200180831161326957829003601f168201915b505050505090505f600a5f3373ffffffffffffffffffffffffffffffffffffffff1673ffffffffffffffffffffffffffffffffffffffff1681526020019081526020015f205f8681526020019081526020015f2060020180546132e8906162ee565b80601f0160208091040260200160405190810160405280929190818152602001828054613314906162ee565b801561335f5780601f106133365761010080835404028352916020019161335f565b820191905f5260205f20905b81548152906001019060200180831161334257829003601f168201915b505050505090505f600a5f3373ffffffffffffffffffffffffffffffffffffffff1673ffffffffffffffffffffffffffffffffffffffff1681526020019081526020015f205f8781526020019081526020015f2060030180546133c1906162ee565b80601f01602080910402602001604051908101604052809291908181526020018280546133ed906162ee565b80156134385780601f1061340f57610100808354040283529160200191613438565b820191905f5260205f20905b81548152906001019060200180831161341b57829003601f168201915b505050505090505f600c846040516134509190616661565b90815260200160405180910390208360405161346c9190616661565b9081526020016040518091039020826040516134889190616661565b90815260200160405180910390205f8681526020019081526020015f206008015f8781526020019081526020015f205f015f9054906101000a900473ffffffffffffffffffffffffffffffffffffffff1690505f600c856040516134ec9190616661565b9081526020016040518091039020846040516135089190616661565b9081526020016040518091039020836040516135249190616661565b90815260200160405180910390205f8781526020019081526020015f206008015f8881526020019081526020015f206001015490505f600c8660405161356a9190616661565b9081526020016040518091039020856040516135869190616661565b9081526020016040518091039020846040516135a29190616661565b90815260200160405180910390205f8881526020019081526020015f206009015490505f5b8181101561397c575f600c886040516135e09190616661565b9081526020016040518091039020876040516135fc9190616661565b9081526020016040518091039020866040516136189190616661565b90815260200160405180910390205f8a81526020019081526020015f206008015f8381526020019081526020015f206001015490505f600c8960405161365e9190616661565b90815260200160405180910390208860405161367a9190616661565b9081526020016040518091039020876040516136969190616661565b90815260200160405180910390205f8b81526020019081526020015f206008015f8481526020019081526020015f205f015f9054906101000a900473ffffffffffffffffffffffffffffffffffffffff1690505f8290505b6001600d5f8473ffffffffffffffffffffffffffffffffffffffff1673ffffffffffffffffffffffffffffffffffffffff1681526020019081526020015f206007015461373b9190616968565b81101561384357600b5f8373ffffffffffffffffffffffffffffffffffffffff1673ffffffffffffffffffffffffffffffffffffffff1681526020019081526020015f205f60018361378d919061699b565b81526020019081526020015f20600b5f8473ffffffffffffffffffffffffffffffffffffffff1673ffffffffffffffffffffffffffffffffffffffff1681526020019081526020015f205f8381526020019081526020015f205f820154815f01556001820181600101908161380291906169e3565b506002820181600201908161381791906169e3565b506003820181600301908161382c91906169e3565b50905050808061383b9061627a565b9150506136ee565b50600b5f8273ffffffffffffffffffffffffffffffffffffffff1673ffffffffffffffffffffffffffffffffffffffff1681526020019081526020015f205f6001600d5f8573ffffffffffffffffffffffffffffffffffffffff1673ffffffffffffffffffffffffffffffffffffffff1681526020019081526020015f20600701546138cf9190616968565b81526020019081526020015f205f8082015f9055600182015f6138f29190615452565b600282015f6139019190615452565b600382015f6139109190615452565b5050600d5f8273ffffffffffffffffffffffffffffffffffffffff1673ffffffffffffffffffffffffffffffffffffffff1681526020019081526020015f206007015f81548092919061396290616ac8565b9190505550505080806139749061627a565b9150506135c7565b505f600c8760405161398e9190616661565b9081526020016040518091039020866040516139aa9190616661565b9081526020016040518091039020856040516139c69190616661565b90815260200160405180910390205f8981526020019081526020015f2060090181905550600a5f3373ffffffffffffffffffffffffffffffffffffffff1673ffffffffffffffffffffffffffffffffffffffff1681526020019081526020015f205f8a81526020019081526020015f20600a5f8573ffffffffffffffffffffffffffffffffffffffff1673ffffffffffffffffffffffffffffffffffffffff1681526020019081526020015f205f600d5f8773ffffffffffffffffffffffffffffffffffffffff1673ffffffffffffffffffffffffffffffffffffffff1681526020019081526020015f206006015481526020019081526020015f205f820154815f015560018201816001019081613ade91906169e3565b5060028201816002019081613af391906169e3565b5060038201816003019081613b0891906169e3565b50905050600d5f8473ffffffffffffffffffffffffffffffffffffffff1673ffffffffffffffffffffffffffffffffffffffff1681526020019081526020015f206006015f815480929190613b5c9061627a565b9190505550600a5f3373ffffffffffffffffffffffffffffffffffffffff1673ffffffffffffffffffffffffffffffffffffffff1681526020019081526020015f205f8a81526020019081526020015f205f8082015f9055600182015f613bc39190615452565b600282015f613bd29190615452565b600382015f613be19190615452565b50505f8990505b6001600d5f3373ffffffffffffffffffffffffffffffffffffffff1673ffffffffffffffffffffffffffffffffffffffff1681526020019081526020015f2060060154613c359190616968565b811015613d3d57600a5f3373ffffffffffffffffffffffffffffffffffffffff1673ffffffffffffffffffffffffffffffffffffffff1681526020019081526020015f205f600183613c87919061699b565b81526020019081526020015f20600a5f3373ffffffffffffffffffffffffffffffffffffffff1673ffffffffffffffffffffffffffffffffffffffff1681526020019081526020015f205f8381526020019081526020015f205f820154815f015560018201816001019081613cfc91906169e3565b5060028201816002019081613d1191906169e3565b5060038201816003019081613d2691906169e3565b509050508080613d359061627a565b915050613be8565b50600a5f3373ffffffffffffffffffffffffffffffffffffffff1673ffffffffffffffffffffffffffffffffffffffff1681526020019081526020015f205f6001600d5f3373ffffffffffffffffffffffffffffffffffffffff1673ffffffffffffffffffffffffffffffffffffffff1681526020019081526020015f2060060154613dc99190616968565b81526020019081526020015f205f8082015f9055600182015f613dec9190615452565b600282015f613dfb9190615452565b600382015f613e0a9190615452565b5050600d5f3373ffffffffffffffffffffffffffffffffffffffff1673ffffffffffffffffffffffffffffffffffffffff1681526020019081526020015f206006015f815480929190613e5c90616ac8565b919050555082600c87604051613e729190616661565b908152602001604051809103902086604051613e8e9190616661565b908152602001604051809103902085604051613eaa9190616661565b90815260200160405180910390205f8981526020019081526020015f205f015f6101000a81548173ffffffffffffffffffffffffffffffffffffffff021916908373ffffffffffffffffffffffffffffffffffffffff1602179055505f600c87604051613f179190616661565b908152602001604051809103902086604051613f339190616661565b908152602001604051809103902085604051613f4f9190616661565b90815260200160405180910390205f8981526020019081526020015f206007015f6101000a81548160ff021916908315150217905550613ff83384600c89604051613f9a9190616661565b908152602001604051809103902088604051613fb69190616661565b908152602001604051809103902087604051613fd29190616661565b90815260200160405180910390205f8b81526020019081526020015f2060020154614e1e565b505050505050505050565b5f805f805f80600c8a6040516140199190616661565b9081526020016040518091039020896040516140359190616661565b9081526020016040518091039020886040516140519190616661565b90815260200160405180910390205f8881526020019081526020015f205f015f9054906101000a900473ffffffffffffffffffffffffffffffffffffffff1690505f600c8b6040516140a39190616661565b90815260200160405180910390208a6040516140bf9190616661565b9081526020016040518091039020896040516140db9190616661565b90815260200160405180910390205f8981526020019081526020015f206002015490505f600c8c60405161410f9190616661565b90815260200160405180910390208b60405161412b9190616661565b90815260200160405180910390208a6040516141479190616661565b90815260200160405180910390205f8a81526020019081526020015f206004015490505f600c8d60405161417b9190616661565b90815260200160405180910390208c6040516141979190616661565b90815260200160405180910390208b6040516141b39190616661565b90815260200160405180910390205f8b81526020019081526020015f206006015490505f600c8e6040516141e79190616661565b90815260200160405180910390208d6040516142039190616661565b90815260200160405180910390208c60405161421f9190616661565b90815260200160405180910390205f8c81526020019081526020015f20600a015490508484848484995099509950995099505050505050945094509450945094565b5f60055f8473ffffffffffffffffffffffffffffffffffffffff1673ffffffffffffffffffffffffffffffffffffffff1681526020019081526020015f205f8373ffffffffffffffffffffffffffffffffffffffff1673ffffffffffffffffffffffffffffffffffffffff1681526020019081526020015f205f9054906101000a900460ff16905092915050565b5f80600c866040516143019190616661565b90815260200160405180910390208560405161431d9190616661565b9081526020016040518091039020846040516143399190616661565b90815260200160405180910390205f8481526020019081526020015f2090505f816009015490505f8103614371575f92505050614408565b5f5b81811015614401573373ffffffffffffffffffffffffffffffffffffffff16836008015f8381526020019081526020015f205f015f9054906101000a900473ffffffffffffffffffffffffffffffffffffffff1673ffffffffffffffffffffffffffffffffffffffff16036143ee5760019350505050614408565b80806143f99061627a565b915050614373565b505f925050505b949350505050565b60085481565b61441e614503565b5f73ffffffffffffffffffffffffffffffffffffffff168173ffffffffffffffffffffffffffffffffffffffff160361448e575f6040517f1e4fbdf700000000000000000000000000000000000000000000000000000000815260040161448591906158c3565b60405180910390fd5b61449781614960565b50565b5f7f01ffc9a7000000000000000000000000000000000000000000000000000000007bffffffffffffffffffffffffffffffffffffffffffffffffffffffff1916827bffffffffffffffffffffffffffffffffffffffffffffffffffffffff1916149050919050565b61450b614649565b73ffffffffffffffffffffffffffffffffffffffff16614529612bac565b73ffffffffffffffffffffffffffffffffffffffff16146145885761454c614649565b6040517f118cdaa700000000000000000000000000000000000000000000000000000000815260040161457f91906158c3565b60405180910390fd5b565b5f8061459583614f86565b90505f73ffffffffffffffffffffffffffffffffffffffff168173ffffffffffffffffffffffffffffffffffffffff160361460757826040517f7e2732890000000000000000000000000000000000000000000000000000000081526004016145fe9190615efa565b60405180910390fd5b80915050919050565b5f60045f8381526020019081526020015f205f9054906101000a900473ffffffffffffffffffffffffffffffffffffffff169050919050565b5f33905090565b61465d8383836001614fbf565b505050565b5f8061466d84614f86565b90505f73ffffffffffffffffffffffffffffffffffffffff168373ffffffffffffffffffffffffffffffffffffffff16146146ae576146ad81848661517e565b5b5f73ffffffffffffffffffffffffffffffffffffffff168173ffffffffffffffffffffffffffffffffffffffff1614614739576146ed5f855f80614fbf565b600160035f8373ffffffffffffffffffffffffffffffffffffffff1673ffffffffffffffffffffffffffffffffffffffff1681526020019081526020015f205f82825403925050819055505b5f73ffffffffffffffffffffffffffffffffffffffff168573ffffffffffffffffffffffffffffffffffffffff16146147b857600160035f8773ffffffffffffffffffffffffffffffffffffffff1673ffffffffffffffffffffffffffffffffffffffff1681526020019081526020015f205f82825401925050819055505b8460025f8681526020019081526020015f205f6101000a81548173ffffffffffffffffffffffffffffffffffffffff021916908373ffffffffffffffffffffffffffffffffffffffff160217905550838573ffffffffffffffffffffffffffffffffffffffff168273ffffffffffffffffffffffffffffffffffffffff167fddf252ad1be2c89b69c2b068fc378daa952ba7f163c4a11628f55a4df523b3ef60405160405180910390a4809150509392505050565b5f73ffffffffffffffffffffffffffffffffffffffff168273ffffffffffffffffffffffffffffffffffffffff16036148dd575f6040517f64a0ae920000000000000000000000000000000000000000000000000000000081526004016148d491906158c3565b60405180910390fd5b5f6148e983835f614662565b90505f73ffffffffffffffffffffffffffffffffffffffff168173ffffffffffffffffffffffffffffffffffffffff161461495b575f6040517f73c6ac6e00000000000000000000000000000000000000000000000000000000815260040161495291906158c3565b60405180910390fd5b505050565b5f60065f9054906101000a900473ffffffffffffffffffffffffffffffffffffffff1690508160065f6101000a81548173ffffffffffffffffffffffffffffffffffffffff021916908373ffffffffffffffffffffffffffffffffffffffff1602179055508173ffffffffffffffffffffffffffffffffffffffff168173ffffffffffffffffffffffffffffffffffffffff167f8be0079c531659141344cd1fd0a4f28419497f9722a3daafe3b4186f6b6457e060405160405180910390a35050565b5f73ffffffffffffffffffffffffffffffffffffffff168273ffffffffffffffffffffffffffffffffffffffff1603614a9357816040517f5b08ba18000000000000000000000000000000000000000000000000000000008152600401614a8a91906158c3565b60405180910390fd5b8060055f8573ffffffffffffffffffffffffffffffffffffffff1673ffffffffffffffffffffffffffffffffffffffff1681526020019081526020015f205f8473ffffffffffffffffffffffffffffffffffffffff1673ffffffffffffffffffffffffffffffffffffffff1681526020019081526020015f205f6101000a81548160ff0219169083151502179055508173ffffffffffffffffffffffffffffffffffffffff168373ffffffffffffffffffffffffffffffffffffffff167f17307eab39ab6107e8899845ad3d59bd9653f200f220920489ca2b5937696c3183604051614b7f9190615555565b60405180910390a3505050565b5f8373ffffffffffffffffffffffffffffffffffffffff163b1115614d38578273ffffffffffffffffffffffffffffffffffffffff1663150b7a02614bcf614649565b8685856040518563ffffffff1660e01b8152600401614bf19493929190616b41565b6020604051808303815f875af1925050508015614c2c57506040513d601f19601f82011682018060405250810190614c299190616b9f565b60015b614cad573d805f8114614c5a576040519150601f19603f3d011682016040523d82523d5f602084013e614c5f565b606091505b505f815103614ca557836040517f64a0ae92000000000000000000000000000000000000000000000000000000008152600401614c9c91906158c3565b60405180910390fd5b805181602001fd5b63150b7a0260e01b7bffffffffffffffffffffffffffffffffffffffffffffffffffffffff1916817bffffffffffffffffffffffffffffffffffffffffffffffffffffffff191614614d3657836040517f64a0ae92000000000000000000000000000000000000000000000000000000008152600401614d2d91906158c3565b60405180910390fd5b505b50505050565b606060405180602001604052805f815250905090565b60605f6001614d6284615241565b0190505f8167ffffffffffffffff811115614d8057614d7f6155e0565b5b6040519080825280601f01601f191660200182016040528015614db25781602001600182028036833780820191505090505b5090505f82602001820190505b600115614e13578080600190039150507f3031323334353637383961626364656600000000000000000000000000000000600a86061a8153600a8581614e0857614e07616bca565b5b0494505f8503614dbf575b819350505050919050565b5f73ffffffffffffffffffffffffffffffffffffffff168273ffffffffffffffffffffffffffffffffffffffff1603614e8e575f6040517f64a0ae92000000000000000000000000000000000000000000000000000000008152600401614e8591906158c3565b60405180910390fd5b5f614e9a83835f614662565b90505f73ffffffffffffffffffffffffffffffffffffffff168173ffffffffffffffffffffffffffffffffffffffff1603614f0c57816040517f7e273289000000000000000000000000000000000000000000000000000000008152600401614f039190615efa565b60405180910390fd5b8373ffffffffffffffffffffffffffffffffffffffff168173ffffffffffffffffffffffffffffffffffffffff1614614f80578382826040517f64283d7b000000000000000000000000000000000000000000000000000000008152600401614f779392919061658a565b60405180910390fd5b50505050565b5f60025f8381526020019081526020015f205f9054906101000a900473ffffffffffffffffffffffffffffffffffffffff169050919050565b8080614ff757505f73ffffffffffffffffffffffffffffffffffffffff168273ffffffffffffffffffffffffffffffffffffffff1614155b15615129575f6150068461458a565b90505f73ffffffffffffffffffffffffffffffffffffffff168373ffffffffffffffffffffffffffffffffffffffff161415801561507057508273ffffffffffffffffffffffffffffffffffffffff168173ffffffffffffffffffffffffffffffffffffffff1614155b801561508357506150818184614261565b155b156150c557826040517fa9fbf51f0000000000000000000000000000000000000000000000000000000081526004016150bc91906158c3565b60405180910390fd5b811561512757838573ffffffffffffffffffffffffffffffffffffffff168273ffffffffffffffffffffffffffffffffffffffff167f8c5be1e5ebec7d5bd14f71427d1e84f3dd0314c0f7b2291e5b200ac8c7c3b92560405160405180910390a45b505b8360045f8581526020019081526020015f205f6101000a81548173ffffffffffffffffffffffffffffffffffffffff021916908373ffffffffffffffffffffffffffffffffffffffff16021790555050505050565b615189838383615392565b61523c575f73ffffffffffffffffffffffffffffffffffffffff168373ffffffffffffffffffffffffffffffffffffffff16036151fd57806040517f7e2732890000000000000000000000000000000000000000000000000000000081526004016151f49190615efa565b60405180910390fd5b81816040517f177e802f000000000000000000000000000000000000000000000000000000008152600401615233929190616bf7565b60405180910390fd5b505050565b5f805f90507a184f03e93ff9f4daa797ed6e38ed64bf6a1f010000000000000000831061529d577a184f03e93ff9f4daa797ed6e38ed64bf6a1f010000000000000000838161529357615292616bca565b5b0492506040810190505b6d04ee2d6d415b85acef810000000083106152da576d04ee2d6d415b85acef810000000083816152d0576152cf616bca565b5b0492506020810190505b662386f26fc10000831061530957662386f26fc1000083816152ff576152fe616bca565b5b0492506010810190505b6305f5e1008310615332576305f5e100838161532857615327616bca565b5b0492506008810190505b612710831061535757612710838161534d5761534c616bca565b5b0492506004810190505b6064831061537a57606483816153705761536f616bca565b5b0492506002810190505b600a8310615389576001810190505b80915050919050565b5f8073ffffffffffffffffffffffffffffffffffffffff168373ffffffffffffffffffffffffffffffffffffffff161415801561544957508273ffffffffffffffffffffffffffffffffffffffff168473ffffffffffffffffffffffffffffffffffffffff16148061540a57506154098484614261565b5b8061544857508273ffffffffffffffffffffffffffffffffffffffff1661543083614610565b73ffffffffffffffffffffffffffffffffffffffff16145b5b90509392505050565b50805461545e906162ee565b5f825580601f1061546f575061548c565b601f0160209004905f5260205f209081019061548b919061548f565b5b50565b5b808211156154a6575f815f905550600101615490565b5090565b5f604051905090565b5f80fd5b5f80fd5b5f7fffffffff0000000000000000000000000000000000000000000000000000000082169050919050565b6154ef816154bb565b81146154f9575f80fd5b50565b5f8135905061550a816154e6565b92915050565b5f60208284031215615525576155246154b3565b5b5f615532848285016154fc565b91505092915050565b5f8115159050919050565b61554f8161553b565b82525050565b5f6020820190506155685f830184615546565b92915050565b5f73ffffffffffffffffffffffffffffffffffffffff82169050919050565b5f6155978261556e565b9050919050565b6155a78161558d565b81146155b1575f80fd5b50565b5f813590506155c28161559e565b92915050565b5f80fd5b5f80fd5b5f601f19601f8301169050919050565b7f4e487b71000000000000000000000000000000000000000000000000000000005f52604160045260245ffd5b615616826155d0565b810181811067ffffffffffffffff82111715615635576156346155e0565b5b80604052505050565b5f6156476154aa565b9050615653828261560d565b919050565b5f67ffffffffffffffff821115615672576156716155e0565b5b61567b826155d0565b9050602081019050919050565b828183375f83830152505050565b5f6156a86156a384615658565b61563e565b9050828152602081018484840111156156c4576156c36155cc565b5b6156cf848285615688565b509392505050565b5f82601f8301126156eb576156ea6155c8565b5b81356156fb848260208601615696565b91505092915050565b5f805f806080858703121561571c5761571b6154b3565b5b5f615729878288016155b4565b945050602085013567ffffffffffffffff81111561574a576157496154b7565b5b615756878288016156d7565b935050604085013567ffffffffffffffff811115615777576157766154b7565b5b615783878288016156d7565b925050606085013567ffffffffffffffff8111156157a4576157a36154b7565b5b6157b0878288016156d7565b91505092959194509250565b5f81519050919050565b5f82825260208201905092915050565b5f5b838110156157f35780820151818401526020810190506157d8565b5f8484015250505050565b5f615808826157bc565b61581281856157c6565b93506158228185602086016157d6565b61582b816155d0565b840191505092915050565b5f6020820190508181035f83015261584e81846157fe565b905092915050565b5f819050919050565b61586881615856565b8114615872575f80fd5b50565b5f813590506158838161585f565b92915050565b5f6020828403121561589e5761589d6154b3565b5b5f6158ab84828501615875565b91505092915050565b6158bd8161558d565b82525050565b5f6020820190506158d65f8301846158b4565b92915050565b5f80604083850312156158f2576158f16154b3565b5b5f6158ff858286016155b4565b925050602061591085828601615875565b9150509250929050565b61592381615856565b82525050565b5f60808201905061593c5f83018761591a565b818103602083015261594e81866157fe565b9050818103604083015261596281856157fe565b9050818103606083015261597681846157fe565b905095945050505050565b5f805f8060808587031215615999576159986154b3565b5b5f85013567ffffffffffffffff8111156159b6576159b56154b7565b5b6159c2878288016156d7565b945050602085013567ffffffffffffffff8111156159e3576159e26154b7565b5b6159ef878288016156d7565b935050604085013567ffffffffffffffff811115615a1057615a0f6154b7565b5b615a1c878288016156d7565b9250506060615a2d87828801615875565b91505092959194509250565b5f61014082019050615a4d5f83018d6158b4565b615a5a602083018c6158b4565b615a67604083018b61591a565b615a74606083018a61591a565b615a81608083018961591a565b615a8e60a0830188615546565b615a9b60c083018761591a565b615aa860e0830186615546565b615ab661010083018561591a565b615ac461012083018461591a565b9b9a5050505050505050505050565b5f60208284031215615ae857615ae76154b3565b5b5f615af5848285016155b4565b91505092915050565b5f61010082019050615b125f83018b6158b4565b8181036020830152615b24818a6157fe565b90508181036040830152615b3881896157fe565b90508181036060830152615b4c81886157fe565b9050615b5b608083018761591a565b81810360a0830152615b6d81866157fe565b9050615b7c60c083018561591a565b615b8960e083018461591a565b9998505050505050505050565b5f805f60608486031215615bad57615bac6154b3565b5b5f615bba868287016155b4565b9350506020615bcb868287016155b4565b9250506040615bdc86828701615875565b9150509250925092565b5f805f805f805f80610100898b031215615c0357615c026154b3565b5b5f89013567ffffffffffffffff811115615c2057615c1f6154b7565b5b615c2c8b828c016156d7565b985050602089013567ffffffffffffffff811115615c4d57615c4c6154b7565b5b615c598b828c016156d7565b975050604089013567ffffffffffffffff811115615c7a57615c796154b7565b5b615c868b828c016156d7565b9650506060615c978b828c01615875565b9550506080615ca88b828c01615875565b94505060a0615cb98b828c016155b4565b93505060c0615cca8b828c01615875565b92505060e0615cdb8b828c01615875565b9150509295985092959890939650565b5f6080820190508181035f830152615d0381876157fe565b90508181036020830152615d1781866157fe565b90508181036040830152615d2b81856157fe565b9050615d3a606083018461591a565b95945050505050565b5f805f805f60a08688031215615d5c57615d5b6154b3565b5b5f86013567ffffffffffffffff811115615d7957615d786154b7565b5b615d85888289016156d7565b955050602086013567ffffffffffffffff811115615da657615da56154b7565b5b615db2888289016156d7565b945050604086013567ffffffffffffffff811115615dd357615dd26154b7565b5b615ddf888289016156d7565b9350506060615df088828901615875565b9250506080615e0188828901615875565b9150509295509295909350565b5f608082019050615e215f8301876158b4565b8181036020830152615e3381866157fe565b90508181036040830152615e4781856157fe565b90508181036060830152615e5b81846157fe565b905095945050505050565b5f604082019050615e795f83018561591a565b615e86602083018461591a565b9392505050565b5f60a0820190508181035f830152615ea581886157fe565b90508181036020830152615eb981876157fe565b90508181036040830152615ecd81866157fe565b9050615edc606083018561591a565b8181036080830152615eee81846157fe565b90509695505050505050565b5f602082019050615f0d5f83018461591a565b92915050565b615f1c8161553b565b8114615f26575f80fd5b50565b5f81359050615f3781615f13565b92915050565b5f8060408385031215615f5357615f526154b3565b5b5f615f60858286016155b4565b9250506020615f7185828601615f29565b9150509250929050565b5f67ffffffffffffffff821115615f9557615f946155e0565b5b615f9e826155d0565b9050602081019050919050565b5f615fbd615fb884615f7b565b61563e565b905082815260208101848484011115615fd957615fd86155cc565b5b615fe4848285615688565b509392505050565b5f82601f83011261600057615fff6155c8565b5b8135616010848260208601615fab565b91505092915050565b5f805f8060808587031215616031576160306154b3565b5b5f61603e878288016155b4565b945050602061604f878288016155b4565b935050604061606087828801615875565b925050606085013567ffffffffffffffff811115616081576160806154b7565b5b61608d87828801615fec565b91505092959194509250565b5f805f805f60a086880312156160b2576160b16154b3565b5b5f86013567ffffffffffffffff8111156160cf576160ce6154b7565b5b6160db888289016156d7565b955050602086013567ffffffffffffffff8111156160fc576160fb6154b7565b5b616108888289016156d7565b945050604086013567ffffffffffffffff811115616129576161286154b7565b5b616135888289016156d7565b935050606061614688828901615875565b925050608086013567ffffffffffffffff811115616167576161666154b7565b5b616173888289016156d7565b9150509295509295909350565b5f8060408385031215616196576161956154b3565b5b5f6161a385828601615875565b92505060206161b485828601615875565b9150509250929050565b5f60a0820190506161d15f8301886158b4565b6161de602083018761591a565b6161eb604083018661591a565b6161f8606083018561591a565b616205608083018461591a565b9695505050505050565b5f8060408385031215616225576162246154b3565b5b5f616232858286016155b4565b9250506020616243858286016155b4565b9150509250929050565b7f4e487b71000000000000000000000000000000000000000000000000000000005f52601160045260245ffd5b5f61628482615856565b91507fffffffffffffffffffffffffffffffffffffffffffffffffffffffffffffffff82036162b6576162b561624d565b5b600182019050919050565b7f4e487b71000000000000000000000000000000000000000000000000000000005f52602260045260245ffd5b5f600282049050600182168061630557607f821691505b602082108103616318576163176162c1565b5b50919050565b5f819050815f5260205f209050919050565b5f6020601f8301049050919050565b5f82821b905092915050565b5f6008830261637a7fffffffffffffffffffffffffffffffffffffffffffffffffffffffffffffffff8261633f565b616384868361633f565b95508019841693508086168417925050509392505050565b5f819050919050565b5f6163bf6163ba6163b584615856565b61639c565b615856565b9050919050565b5f819050919050565b6163d8836163a5565b6163ec6163e4826163c6565b84845461634b565b825550505050565b5f90565b6164006163f4565b61640b8184846163cf565b505050565b5b8181101561642e576164235f826163f8565b600181019050616411565b5050565b601f821115616473576164448161631e565b61644d84616330565b8101602085101561645c578190505b61647061646885616330565b830182616410565b50505b505050565b5f82821c905092915050565b5f6164935f1984600802616478565b1980831691505092915050565b5f6164ab8383616484565b9150826002028217905092915050565b6164c4826157bc565b67ffffffffffffffff8111156164dd576164dc6155e0565b5b6164e782546162ee565b6164f2828285616432565b5f60209050601f831160018114616523575f8415616511578287015190505b61651b85826164a0565b865550616582565b601f1984166165318661631e565b5f5b8281101561655857848901518255600182019150602085019450602081019050616533565b868310156165755784890151616571601f891682616484565b8355505b6001600288020188555050505b505050505050565b5f60608201905061659d5f8301866158b4565b6165aa602083018561591a565b6165b760408301846158b4565b949350505050565b7f4f6e6c792061646d696e2063616e207265676973746572206c616e64000000005f82015250565b5f6165f3601c836157c6565b91506165fe826165bf565b602082019050919050565b5f6020820190508181035f830152616620816165e7565b9050919050565b5f81905092915050565b5f61663b826157bc565b6166458185616627565b93506166558185602086016157d6565b80840191505092915050565b5f61666c8284616631565b915081905092915050565b5f8154616683816162ee565b61668d8186616627565b9450600182165f81146166a757600181146166bc576166ee565b60ff19831686528115158202860193506166ee565b6166c58561631e565b5f5b838110156166e6578154818901526001820191506020810190506166c7565b838801955050505b50505092915050565b5f6167028284616677565b915081905092915050565b7f41646d696e2063616e206f6e6c79207265676973746572206c616e64206f66205f8201527f73616d6520636974792e00000000000000000000000000000000000000000000602082015250565b5f616767602a836157c6565b91506167728261670d565b604082019050919050565b5f6020820190508181035f8301526167948161675b565b9050919050565b7f537572766579204e756d62657220616c726561647920726567697374657265645f8201527f2100000000000000000000000000000000000000000000000000000000000000602082015250565b5f6167f56021836157c6565b91506168008261679b565b604082019050919050565b5f6020820190508181035f830152616822816167e9565b9050919050565b7f50726f706572747920616c7265616479206d61726b656420617661696c61626c5f8201527f6500000000000000000000000000000000000000000000000000000000000000602082015250565b5f6168836021836157c6565b915061688e82616829565b604082019050919050565b5f6020820190508181035f8301526168b081616877565b9050919050565b7f546869732070726f7065727479206973204e4f54206d61726b656420666f72205f8201527f73616c6521000000000000000000000000000000000000000000000000000000602082015250565b5f6169116025836157c6565b915061691c826168b7565b604082019050919050565b5f6020820190508181035f83015261693e81616905565b9050919050565b5f6169508285616631565b915061695c8284616631565b91508190509392505050565b5f61697282615856565b915061697d83615856565b92508282039050818111156169955761699461624d565b5b92915050565b5f6169a582615856565b91506169b083615856565b92508282019050808211156169c8576169c761624d565b5b92915050565b5f815490506169dc816162ee565b9050919050565b8181036169f1575050616ac6565b6169fa826169ce565b67ffffffffffffffff811115616a1357616a126155e0565b5b616a1d82546162ee565b616a28828285616432565b5f601f831160018114616a55575f8415616a43578287015490505b616a4d85826164a0565b865550616abf565b601f198416616a638761631e565b9650616a6e8661631e565b5f5b82811015616a9557848901548255600182019150600185019450602081019050616a70565b86831015616ab25784890154616aae601f891682616484565b8355505b6001600288020188555050505b5050505050505b565b5f616ad282615856565b91505f8203616ae457616ae361624d565b5b600182039050919050565b5f81519050919050565b5f82825260208201905092915050565b5f616b1382616aef565b616b1d8185616af9565b9350616b2d8185602086016157d6565b616b36816155d0565b840191505092915050565b5f608082019050616b545f8301876158b4565b616b6160208301866158b4565b616b6e604083018561591a565b8181036060830152616b808184616b09565b905095945050505050565b5f81519050616b99816154e6565b92915050565b5f60208284031215616bb457616bb36154b3565b5b5f616bc184828501616b8b565b91505092915050565b7f4e487b71000000000000000000000000000000000000000000000000000000005f52601260045260245ffd5b5f604082019050616c0a5f8301856158b4565b616c17602083018461591a565b939250505056fea2646970667358221220e02bd8b615c5ccca6c2319087beb8ee4c08b0589bc0c57106ef4030bde4a1e3864736f6c63430008140033",
  "immutableReferences": {},
  "source": "// SPDX-License-Identifier: MIT\npragma solidity ^0.8.20;\n\nimport \"@openzeppelin/contracts/token/ERC721/ERC721.sol\";\nimport \"@openzeppelin/contracts/access/Ownable.sol\";\n\ncontract LandRegistry is ERC721, Ownable {\n\n    address public superAdmin;\n    uint public totalAdmins;\n    \n    struct Admin {\n        address adminAddress;\n        string city;\n        string district;\n        string state;\n    }\n\n    struct LandDetails {\n        address owner;\n        address admin;\n        uint256 propertyId;\n        uint surveyNumber;\n        uint index;\n        bool registered;\n        uint marketValue;\n        bool markAvailable;\n        mapping(uint => RequestDetails) requests; // reqNo => RequestDetails\n        uint noOfRequests;  // other users requested to this land\n        uint sqft;\n    }\n\n    struct UserProfile {\n        address userAddr;\n        string fullName;\n        string gender;\n        string email;\n        uint256 contact;\n        string residentialAddr;\n        uint totalIndices;\n        uint requestIndices;  // this user requested to other lands\n    }\n\n    struct OwnerOwns {\n        uint surveyNumber;\n        string state;\n        string district;\n        string city;\n    }\n    \n    struct RequestedLands {\n        uint surveyNumber;\n        string state;\n        string district;\n        string city;\n    }\n\n    struct RequestDetails {\n        address whoRequested;\n        uint reqIndex;\n    }\n\n    mapping(address => Admin) public admins;\n    mapping(address => mapping(uint => OwnerOwns)) public ownerMapsProperty;  // ownerAddr => index no. => OwnerOwns \n    mapping(address => mapping(uint => RequestedLands)) public requestedLands;  // ownerAddr => reqIndex => RequestedLands\n    mapping(string => mapping(string => mapping(string => mapping(uint => LandDetails)))) public landDetalsMap; // state => district => city => surveyNo => LandDetails\n    mapping(address => UserProfile) public userProfile;\n    \n\n    constructor() ERC721(\"LandRegistryNFT\", \"LRNFT\") Ownable(msg.sender) {\n        superAdmin = msg.sender;\n    }\n\n    modifier onlyAdmin() {\n        require(admins[msg.sender].adminAddress == msg.sender, \"Only admin can register land\");\n        _;\n    }\n\n    // SuperAdmin: Registers new admin\n    function addAdmin(address _adminAddr, string memory _state, string memory _district, string memory _city) external onlyOwner {\n        Admin storage newAdmin = admins[_adminAddr];\n        totalAdmins++;\n\n        newAdmin.adminAddress = _adminAddr;\n        newAdmin.city = _city;\n        newAdmin.district = _district;\n        newAdmin.state = _state;\n    }\n\n    // check if it is admin\n    function isAdmin() external view returns (bool) {\n        return admins[msg.sender].adminAddress == msg.sender;\n    }\n\n    // Admin: registers land\n    function registerLand(\n        string memory _state,\n        string memory _district,\n        string memory _city,\n        uint256 _propertyId,\n        uint _surveyNo,\n        address _owner,\n        uint _marketValue,\n        uint _sqft\n    ) external onlyAdmin {\n        require(\n            keccak256(abi.encodePacked(admins[msg.sender].state)) == keccak256(abi.encodePacked(_state)) &&\n            keccak256(abi.encodePacked(admins[msg.sender].district)) == keccak256(abi.encodePacked(_district)) &&\n            keccak256(abi.encodePacked(admins[msg.sender].city)) == keccak256(abi.encodePacked(_city)),\n            \"Admin can only register land of same city.\"\n        );\n\n        require(!landDetalsMap[_state][_district][_city][_surveyNo].registered, \"Survey Number already registered!\");\n\n        LandDetails storage newLandRegistry = landDetalsMap[_state][_district][_city][_surveyNo];\n        OwnerOwns storage newOwnerOwns = ownerMapsProperty[_owner][userProfile[_owner].totalIndices];\n        \n        newLandRegistry.owner = _owner;\n        newLandRegistry.admin = msg.sender;\n        newLandRegistry.propertyId = _propertyId;\n        newLandRegistry.surveyNumber = _surveyNo;\n        newLandRegistry.index = userProfile[_owner].totalIndices;\n        newLandRegistry.registered = true;\n        newLandRegistry.marketValue = _marketValue;\n        newLandRegistry.markAvailable = false;\n        newLandRegistry.sqft = _sqft;\n\n        newOwnerOwns.surveyNumber = _surveyNo;\n        newOwnerOwns.state = _state;\n        newOwnerOwns.district = _district;\n        newOwnerOwns.city = _city;\n\n        userProfile[_owner].totalIndices++;\n\n        // Mint the NFT to the owner\n        _mint(_owner, _propertyId);\n    }\n\n    // User_1: set user profile\n    function setUserProfile(string memory _fullName, string memory _gender, string memory _email, uint256 _contact, string memory _residentialAddr) external {\n        UserProfile storage newUserProfile = userProfile[msg.sender];\n\n        newUserProfile.fullName = _fullName;\n        newUserProfile.gender = _gender;\n        newUserProfile.email = _email;\n        newUserProfile.contact = _contact;\n        newUserProfile.residentialAddr = _residentialAddr;\n    }\n\n    // User_1: mark property available\n    function markMyPropertyAvailable(uint indexNo) external {\n        string memory state = ownerMapsProperty[msg.sender][indexNo].state;\n        string memory district = ownerMapsProperty[msg.sender][indexNo].district;\n        string memory city = ownerMapsProperty[msg.sender][indexNo].city;\n        uint surveyNumber = ownerMapsProperty[msg.sender][indexNo].surveyNumber;\n\n        require(!landDetalsMap[state][district][city][surveyNumber].markAvailable, \"Property already marked available\");\n\n        landDetalsMap[state][district][city][surveyNumber].markAvailable = true;\n    }\n\n    // User_2: Request for buy  **ownerAddress & index = arguments**\n    function RequestForBuy(string memory _state, string memory _district, string memory _city, uint _surveyNo) external {\n        LandDetails storage thisLandDetail = landDetalsMap[_state][_district][_city][_surveyNo];\n        require(thisLandDetail.markAvailable, \"This property is NOT marked for sale!\");\n\n        uint req_serialNum = thisLandDetail.noOfRequests; \n        thisLandDetail.requests[req_serialNum].whoRequested = msg.sender;\n        thisLandDetail.requests[req_serialNum].reqIndex = userProfile[msg.sender].requestIndices;\n        thisLandDetail.noOfRequests++;\n\n        // adding requested land to user_2 profile\n        RequestedLands storage newRequestedLands = requestedLands[msg.sender][userProfile[msg.sender].requestIndices];\n        newRequestedLands.surveyNumber = _surveyNo;\n        newRequestedLands.state = _state;\n        newRequestedLands.district = _district;\n        newRequestedLands.city = _city;\n\n        userProfile[msg.sender].requestIndices++;\n    }\n\n    // User_1: Accept the buy request; sell.\n    function AcceptRequest(uint _index, uint _reqNo) external {\n        uint _surveyNo = ownerMapsProperty[msg.sender][_index].surveyNumber;\n        string memory _state = ownerMapsProperty[msg.sender][_index].state; \n        string memory _district = ownerMapsProperty[msg.sender][_index].district;\n        string memory _city = ownerMapsProperty[msg.sender][_index].city;\n        \n        // updating LandDetails\n        address newOwner = landDetalsMap[_state][_district][_city][_surveyNo].requests[_reqNo].whoRequested;\n        uint newOwner_reqIndex = landDetalsMap[_state][_district][_city][_surveyNo].requests[_reqNo].reqIndex;\n        uint noOfReq = landDetalsMap[_state][_district][_city][_surveyNo].noOfRequests;\n\n        // deleting requested land from all requesters AND removing all incoming requests\nfor (uint i = 0; i < noOfReq; i++) {\n    uint del_index = landDetalsMap[_state][_district][_city][_surveyNo].requests[i].reqIndex;\n    address del_reqAddr = landDetalsMap[_state][_district][_city][_surveyNo].requests[i].whoRequested;\n\n    for (uint j = del_index; j < userProfile[del_reqAddr].requestIndices - 1; j++) {\n        requestedLands[del_reqAddr][j] = requestedLands[del_reqAddr][j + 1];\n    }\n    delete requestedLands[del_reqAddr][userProfile[del_reqAddr].requestIndices - 1];\n    userProfile[del_reqAddr].requestIndices--;\n}\nlandDetalsMap[_state][_district][_city][_surveyNo].noOfRequests = 0;\n\n\n        // transferring ownership\n        ownerMapsProperty[newOwner][userProfile[newOwner].totalIndices] = ownerMapsProperty[msg.sender][_index];\n        userProfile[newOwner].totalIndices++;\n\n        delete ownerMapsProperty[msg.sender][_index];\n        for (uint i = _index; i < userProfile[msg.sender].totalIndices - 1; i++) {\n            ownerMapsProperty[msg.sender][i] = ownerMapsProperty[msg.sender][i + 1];\n        }\n        delete ownerMapsProperty[msg.sender][userProfile[msg.sender].totalIndices - 1];\n        userProfile[msg.sender].totalIndices--;\n\n        landDetalsMap[_state][_district][_city][_surveyNo].owner = newOwner;\n        landDetalsMap[_state][_district][_city][_surveyNo].markAvailable = false;\n\n        // Transfer the NFT\n        _transfer(msg.sender, newOwner, landDetalsMap[_state][_district][_city][_surveyNo].propertyId);\n    }\n\n    //******* GETTERS **********\n\n    // return land details \n    function getLandDetails(string memory _state, string memory _district, string memory _city, uint _surveyNo) external view returns (address, uint256, uint, uint, uint) {\n        address owner = landDetalsMap[_state][_district][_city][_surveyNo].owner;\n        uint256 propertyid = landDetalsMap[_state][_district][_city][_surveyNo].propertyId;\n        uint indx = landDetalsMap[_state][_district][_city][_surveyNo].index;\n        uint mv = landDetalsMap[_state][_district][_city][_surveyNo].marketValue;\n        uint sqft = landDetalsMap[_state][_district][_city][_surveyNo].sqft;\n\n        return (owner, propertyid, indx, mv, sqft);\n    }\n\n    function getRequestCnt_propId(string memory _state, string memory _district, string memory _city, uint _surveyNo) external view returns (uint, uint256) {\n        uint _noOfRequests = landDetalsMap[_state][_district][_city][_surveyNo].noOfRequests;\n        uint256 _propertyId = landDetalsMap[_state][_district][_city][_surveyNo].propertyId;\n        return (_noOfRequests, _propertyId);\n    }\n\n    function getRequesterDetail(string memory _state, string memory _district, string memory _city, uint _surveyNo, uint _reqIndex) external view returns (address) {\n        address requester = landDetalsMap[_state][_district][_city][_surveyNo].requests[_reqIndex].whoRequested;\n        return (requester);\n    }\n\n    function isAvailable(string memory _state, string memory _district, string memory _city, uint _surveyNo) external view returns (bool) {\n        bool available = landDetalsMap[_state][_district][_city][_surveyNo].markAvailable;\n        return (available);\n    }\n\n    function getOwnerOwns(uint indx) external view returns (string memory, string memory, string memory, uint) {\n        uint surveyNo = ownerMapsProperty[msg.sender][indx].surveyNumber;\n        string memory state = ownerMapsProperty[msg.sender][indx].state;\n        string memory district = ownerMapsProperty[msg.sender][indx].district;\n        string memory city = ownerMapsProperty[msg.sender][indx].city;\n\n        return (state, district, city, surveyNo);\n    }\n\n    function getRequestedLands(uint indx) external view returns (string memory, string memory, string memory, uint) {\n        uint surveyNo = requestedLands[msg.sender][indx].surveyNumber;\n        string memory state = requestedLands[msg.sender][indx].state;\n        string memory district = requestedLands[msg.sender][indx].district;\n        string memory city = requestedLands[msg.sender][indx].city;\n\n        return (state, district, city, surveyNo);\n    }\n\n    function getUserProfile() external view returns (string memory, string memory, string memory, uint256, string memory) {\n        string memory fullName = userProfile[msg.sender].fullName;\n        string memory gender = userProfile[msg.sender].gender;\n        string memory email = userProfile[msg.sender].email;\n        uint256 contact = userProfile[msg.sender].contact;\n        string memory residentialAddr = userProfile[msg.sender].residentialAddr;\n\n        return (fullName, gender, email, contact, residentialAddr);\n    }\n\n    function getIndices() external view returns (uint, uint) {\n        uint _totalIndices = userProfile[msg.sender].totalIndices;\n        uint _reqIndices = userProfile[msg.sender].requestIndices;\n\n        return (_totalIndices, _reqIndices);\n    }\n\n    function didIRequested(string memory _state, string memory _district, string memory _city, uint _surveyNo) external view returns (bool) {\n        LandDetails storage thisLandDetail = landDetalsMap[_state][_district][_city][_surveyNo];\n        uint _noOfRequests = thisLandDetail.noOfRequests;\n\n        if (_noOfRequests == 0) \n            return (false);\n\n        for (uint i = 0; i < _noOfRequests; i++) {\n            if (thisLandDetail.requests[i].whoRequested == msg.sender) {\n                return (true);\n            }\n        } \n\n        return (false);\n    } \n}\n\n",
  "sourcePath": "D:\\React\\Land-registration\\contracts\\Registry.sol",
  "compiler": {
    "name": "solc",
    "version": "0.8.20+commit.a1b79de6.Emscripten.clang"
  },
  "schemaVersion": "3.4.16",
  "updatedAt": "2024-06-12T14:30:57.611Z",
  "devdoc": {
    "errors": {
      "ERC721IncorrectOwner(address,uint256,address)": [
        {
          "details": "Indicates an error related to the ownership over a particular token. Used in transfers.",
          "params": {
            "owner": "Address of the current owner of a token.",
            "sender": "Address whose tokens are being transferred.",
            "tokenId": "Identifier number of a token."
          }
        }
      ],
      "ERC721InsufficientApproval(address,uint256)": [
        {
          "details": "Indicates a failure with the `operator`s approval. Used in transfers.",
          "params": {
            "operator": "Address that may be allowed to operate on tokens without being their owner.",
            "tokenId": "Identifier number of a token."
          }
        }
      ],
      "ERC721InvalidApprover(address)": [
        {
          "details": "Indicates a failure with the `approver` of a token to be approved. Used in approvals.",
          "params": {
            "approver": "Address initiating an approval operation."
          }
        }
      ],
      "ERC721InvalidOperator(address)": [
        {
          "details": "Indicates a failure with the `operator` to be approved. Used in approvals.",
          "params": {
            "operator": "Address that may be allowed to operate on tokens without being their owner."
          }
        }
      ],
      "ERC721InvalidOwner(address)": [
        {
          "details": "Indicates that an address can't be an owner. For example, `address(0)` is a forbidden owner in EIP-20. Used in balance queries.",
          "params": {
            "owner": "Address of the current owner of a token."
          }
        }
      ],
      "ERC721InvalidReceiver(address)": [
        {
          "details": "Indicates a failure with the token `receiver`. Used in transfers.",
          "params": {
            "receiver": "Address to which tokens are being transferred."
          }
        }
      ],
      "ERC721InvalidSender(address)": [
        {
          "details": "Indicates a failure with the token `sender`. Used in transfers.",
          "params": {
            "sender": "Address whose tokens are being transferred."
          }
        }
      ],
      "ERC721NonexistentToken(uint256)": [
        {
          "details": "Indicates a `tokenId` whose `owner` is the zero address.",
          "params": {
            "tokenId": "Identifier number of a token."
          }
        }
      ],
      "OwnableInvalidOwner(address)": [
        {
          "details": "The owner is not a valid owner account. (eg. `address(0)`)"
        }
      ],
      "OwnableUnauthorizedAccount(address)": [
        {
          "details": "The caller account is not authorized to perform an operation."
        }
      ]
    },
    "events": {
      "Approval(address,address,uint256)": {
        "details": "Emitted when `owner` enables `approved` to manage the `tokenId` token."
      },
      "ApprovalForAll(address,address,bool)": {
        "details": "Emitted when `owner` enables or disables (`approved`) `operator` to manage all of its assets."
      },
      "Transfer(address,address,uint256)": {
        "details": "Emitted when `tokenId` token is transferred from `from` to `to`."
      }
    },
    "kind": "dev",
    "methods": {
      "approve(address,uint256)": {
        "details": "See {IERC721-approve}."
      },
      "balanceOf(address)": {
        "details": "See {IERC721-balanceOf}."
      },
      "getApproved(uint256)": {
        "details": "See {IERC721-getApproved}."
      },
      "isApprovedForAll(address,address)": {
        "details": "See {IERC721-isApprovedForAll}."
      },
      "name()": {
        "details": "See {IERC721Metadata-name}."
      },
      "owner()": {
        "details": "Returns the address of the current owner."
      },
      "ownerOf(uint256)": {
        "details": "See {IERC721-ownerOf}."
      },
      "renounceOwnership()": {
        "details": "Leaves the contract without owner. It will not be possible to call `onlyOwner` functions. Can only be called by the current owner. NOTE: Renouncing ownership will leave the contract without an owner, thereby disabling any functionality that is only available to the owner."
      },
      "safeTransferFrom(address,address,uint256)": {
        "details": "See {IERC721-safeTransferFrom}."
      },
      "safeTransferFrom(address,address,uint256,bytes)": {
        "details": "See {IERC721-safeTransferFrom}."
      },
      "setApprovalForAll(address,bool)": {
        "details": "See {IERC721-setApprovalForAll}."
      },
      "supportsInterface(bytes4)": {
        "details": "See {IERC165-supportsInterface}."
      },
      "symbol()": {
        "details": "See {IERC721Metadata-symbol}."
      },
      "tokenURI(uint256)": {
        "details": "See {IERC721Metadata-tokenURI}."
      },
      "transferFrom(address,address,uint256)": {
        "details": "See {IERC721-transferFrom}."
      },
      "transferOwnership(address)": {
        "details": "Transfers ownership of the contract to a new account (`newOwner`). Can only be called by the current owner."
      }
    },
    "version": 1
  },
  "userdoc": {
    "kind": "user",
    "methods": {},
    "version": 1
  }
}