{
  "contractName": "Registry",
  "abi": [
    {
      "inputs": [
        {
          "internalType": "string",
          "name": "_name",
          "type": "string"
        },
        {
          "internalType": "string",
          "name": "_symbol",
          "type": "string"
        }
      ],
      "stateMutability": "nonpayable",
      "type": "constructor"
    },
    {
      "inputs": [
        {
          "internalType": "address",
          "name": "sender",
          "type": "address"
        },
        {
          "internalType": "uint256",
          "name": "tokenId",
          "type": "uint256"
        },
        {
          "internalType": "address",
          "name": "owner",
          "type": "address"
        }
      ],
      "name": "ERC721IncorrectOwner",
      "type": "error"
    },
    {
      "inputs": [
        {
          "internalType": "address",
          "name": "operator",
          "type": "address"
        },
        {
          "internalType": "uint256",
          "name": "tokenId",
          "type": "uint256"
        }
      ],
      "name": "ERC721InsufficientApproval",
      "type": "error"
    },
    {
      "inputs": [
        {
          "internalType": "address",
          "name": "approver",
          "type": "address"
        }
      ],
      "name": "ERC721InvalidApprover",
      "type": "error"
    },
    {
      "inputs": [
        {
          "internalType": "address",
          "name": "operator",
          "type": "address"
        }
      ],
      "name": "ERC721InvalidOperator",
      "type": "error"
    },
    {
      "inputs": [
        {
          "internalType": "address",
          "name": "owner",
          "type": "address"
        }
      ],
      "name": "ERC721InvalidOwner",
      "type": "error"
    },
    {
      "inputs": [
        {
          "internalType": "address",
          "name": "receiver",
          "type": "address"
        }
      ],
      "name": "ERC721InvalidReceiver",
      "type": "error"
    },
    {
      "inputs": [
        {
          "internalType": "address",
          "name": "sender",
          "type": "address"
        }
      ],
      "name": "ERC721InvalidSender",
      "type": "error"
    },
    {
      "inputs": [
        {
          "internalType": "uint256",
          "name": "tokenId",
          "type": "uint256"
        }
      ],
      "name": "ERC721NonexistentToken",
      "type": "error"
    },
    {
      "inputs": [
        {
          "internalType": "address",
          "name": "owner",
          "type": "address"
        }
      ],
      "name": "OwnableInvalidOwner",
      "type": "error"
    },
    {
      "inputs": [
        {
          "internalType": "address",
          "name": "account",
          "type": "address"
        }
      ],
      "name": "OwnableUnauthorizedAccount",
      "type": "error"
    },
    {
      "anonymous": false,
      "inputs": [
        {
          "indexed": true,
          "internalType": "address",
          "name": "owner",
          "type": "address"
        },
        {
          "indexed": true,
          "internalType": "address",
          "name": "approved",
          "type": "address"
        },
        {
          "indexed": true,
          "internalType": "uint256",
          "name": "tokenId",
          "type": "uint256"
        }
      ],
      "name": "Approval",
      "type": "event"
    },
    {
      "anonymous": false,
      "inputs": [
        {
          "indexed": true,
          "internalType": "address",
          "name": "owner",
          "type": "address"
        },
        {
          "indexed": true,
          "internalType": "address",
          "name": "operator",
          "type": "address"
        },
        {
          "indexed": false,
          "internalType": "bool",
          "name": "approved",
          "type": "bool"
        }
      ],
      "name": "ApprovalForAll",
      "type": "event"
    },
    {
      "anonymous": false,
      "inputs": [
        {
          "indexed": true,
          "internalType": "address",
          "name": "previousOwner",
          "type": "address"
        },
        {
          "indexed": true,
          "internalType": "address",
          "name": "newOwner",
          "type": "address"
        }
      ],
      "name": "OwnershipTransferred",
      "type": "event"
    },
    {
      "anonymous": false,
      "inputs": [
        {
          "indexed": true,
          "internalType": "address",
          "name": "from",
          "type": "address"
        },
        {
          "indexed": true,
          "internalType": "address",
          "name": "to",
          "type": "address"
        },
        {
          "indexed": true,
          "internalType": "uint256",
          "name": "tokenId",
          "type": "uint256"
        }
      ],
      "name": "Transfer",
      "type": "event"
    },
    {
      "inputs": [
        {
          "internalType": "address",
          "name": "",
          "type": "address"
        }
      ],
      "name": "admins",
      "outputs": [
        {
          "internalType": "address",
          "name": "adminAddress",
          "type": "address"
        },
        {
          "internalType": "string",
          "name": "city",
          "type": "string"
        },
        {
          "internalType": "string",
          "name": "district",
          "type": "string"
        },
        {
          "internalType": "string",
          "name": "state",
          "type": "string"
        }
      ],
      "stateMutability": "view",
      "type": "function"
    },
    {
      "inputs": [
        {
          "internalType": "address",
          "name": "to",
          "type": "address"
        },
        {
          "internalType": "uint256",
          "name": "tokenId",
          "type": "uint256"
        }
      ],
      "name": "approve",
      "outputs": [],
      "stateMutability": "nonpayable",
      "type": "function"
    },
    {
      "inputs": [
        {
          "internalType": "address",
          "name": "owner",
          "type": "address"
        }
      ],
      "name": "balanceOf",
      "outputs": [
        {
          "internalType": "uint256",
          "name": "",
          "type": "uint256"
        }
      ],
      "stateMutability": "view",
      "type": "function"
    },
    {
      "inputs": [
        {
          "internalType": "uint256",
          "name": "tokenId",
          "type": "uint256"
        }
      ],
      "name": "getApproved",
      "outputs": [
        {
          "internalType": "address",
          "name": "",
          "type": "address"
        }
      ],
      "stateMutability": "view",
      "type": "function"
    },
    {
      "inputs": [
        {
          "internalType": "address",
          "name": "owner",
          "type": "address"
        },
        {
          "internalType": "address",
          "name": "operator",
          "type": "address"
        }
      ],
      "name": "isApprovedForAll",
      "outputs": [
        {
          "internalType": "bool",
          "name": "",
          "type": "bool"
        }
      ],
      "stateMutability": "view",
      "type": "function"
    },
    {
      "inputs": [
        {
          "internalType": "string",
          "name": "",
          "type": "string"
        },
        {
          "internalType": "string",
          "name": "",
          "type": "string"
        },
        {
          "internalType": "string",
          "name": "",
          "type": "string"
        },
        {
          "internalType": "uint256",
          "name": "",
          "type": "uint256"
        }
      ],
      "name": "landDetailsMap",
      "outputs": [
        {
          "internalType": "address",
          "name": "owner",
          "type": "address"
        },
        {
          "internalType": "address",
          "name": "admin",
          "type": "address"
        },
        {
          "internalType": "uint256",
          "name": "propertyId",
          "type": "uint256"
        },
        {
          "internalType": "uint256",
          "name": "surveyNumber",
          "type": "uint256"
        },
        {
          "internalType": "uint256",
          "name": "index",
          "type": "uint256"
        },
        {
          "internalType": "bool",
          "name": "registered",
          "type": "bool"
        },
        {
          "internalType": "uint256",
          "name": "marketValue",
          "type": "uint256"
        },
        {
          "internalType": "bool",
          "name": "markAvailable",
          "type": "bool"
        },
        {
          "internalType": "uint256",
          "name": "noOfRequests",
          "type": "uint256"
        },
        {
          "internalType": "uint256",
          "name": "sqft",
          "type": "uint256"
        }
      ],
      "stateMutability": "view",
      "type": "function"
    },
    {
      "inputs": [],
      "name": "name",
      "outputs": [
        {
          "internalType": "string",
          "name": "",
          "type": "string"
        }
      ],
      "stateMutability": "view",
      "type": "function"
    },
    {
      "inputs": [],
      "name": "owner",
      "outputs": [
        {
          "internalType": "address",
          "name": "",
          "type": "address"
        }
      ],
      "stateMutability": "view",
      "type": "function"
    },
    {
      "inputs": [
        {
          "internalType": "address",
          "name": "",
          "type": "address"
        },
        {
          "internalType": "uint256",
          "name": "",
          "type": "uint256"
        }
      ],
      "name": "ownerMapsProperty",
      "outputs": [
        {
          "internalType": "uint256",
          "name": "surveyNumber",
          "type": "uint256"
        },
        {
          "internalType": "string",
          "name": "state",
          "type": "string"
        },
        {
          "internalType": "string",
          "name": "district",
          "type": "string"
        },
        {
          "internalType": "string",
          "name": "city",
          "type": "string"
        }
      ],
      "stateMutability": "view",
      "type": "function"
    },
    {
      "inputs": [
        {
          "internalType": "uint256",
          "name": "tokenId",
          "type": "uint256"
        }
      ],
      "name": "ownerOf",
      "outputs": [
        {
          "internalType": "address",
          "name": "",
          "type": "address"
        }
      ],
      "stateMutability": "view",
      "type": "function"
    },
    {
      "inputs": [],
      "name": "renounceOwnership",
      "outputs": [],
      "stateMutability": "nonpayable",
      "type": "function"
    },
    {
      "inputs": [
        {
          "internalType": "address",
          "name": "",
          "type": "address"
        },
        {
          "internalType": "uint256",
          "name": "",
          "type": "uint256"
        }
      ],
      "name": "requestedLands",
      "outputs": [
        {
          "internalType": "uint256",
          "name": "surveyNumber",
          "type": "uint256"
        },
        {
          "internalType": "string",
          "name": "state",
          "type": "string"
        },
        {
          "internalType": "string",
          "name": "district",
          "type": "string"
        },
        {
          "internalType": "string",
          "name": "city",
          "type": "string"
        }
      ],
      "stateMutability": "view",
      "type": "function"
    },
    {
      "inputs": [
        {
          "internalType": "address",
          "name": "from",
          "type": "address"
        },
        {
          "internalType": "address",
          "name": "to",
          "type": "address"
        },
        {
          "internalType": "uint256",
          "name": "tokenId",
          "type": "uint256"
        }
      ],
      "name": "safeTransferFrom",
      "outputs": [],
      "stateMutability": "nonpayable",
      "type": "function"
    },
    {
      "inputs": [
        {
          "internalType": "address",
          "name": "from",
          "type": "address"
        },
        {
          "internalType": "address",
          "name": "to",
          "type": "address"
        },
        {
          "internalType": "uint256",
          "name": "tokenId",
          "type": "uint256"
        },
        {
          "internalType": "bytes",
          "name": "data",
          "type": "bytes"
        }
      ],
      "name": "safeTransferFrom",
      "outputs": [],
      "stateMutability": "nonpayable",
      "type": "function"
    },
    {
      "inputs": [
        {
          "internalType": "address",
          "name": "operator",
          "type": "address"
        },
        {
          "internalType": "bool",
          "name": "approved",
          "type": "bool"
        }
      ],
      "name": "setApprovalForAll",
      "outputs": [],
      "stateMutability": "nonpayable",
      "type": "function"
    },
    {
      "inputs": [],
      "name": "superAdmin",
      "outputs": [
        {
          "internalType": "address",
          "name": "",
          "type": "address"
        }
      ],
      "stateMutability": "view",
      "type": "function"
    },
    {
      "inputs": [
        {
          "internalType": "bytes4",
          "name": "interfaceId",
          "type": "bytes4"
        }
      ],
      "name": "supportsInterface",
      "outputs": [
        {
          "internalType": "bool",
          "name": "",
          "type": "bool"
        }
      ],
      "stateMutability": "view",
      "type": "function"
    },
    {
      "inputs": [],
      "name": "symbol",
      "outputs": [
        {
          "internalType": "string",
          "name": "",
          "type": "string"
        }
      ],
      "stateMutability": "view",
      "type": "function"
    },
    {
      "inputs": [
        {
          "internalType": "uint256",
          "name": "tokenId",
          "type": "uint256"
        }
      ],
      "name": "tokenURI",
      "outputs": [
        {
          "internalType": "string",
          "name": "",
          "type": "string"
        }
      ],
      "stateMutability": "view",
      "type": "function"
    },
    {
      "inputs": [],
      "name": "totalAdmins",
      "outputs": [
        {
          "internalType": "uint256",
          "name": "",
          "type": "uint256"
        }
      ],
      "stateMutability": "view",
      "type": "function"
    },
    {
      "inputs": [
        {
          "internalType": "address",
          "name": "from",
          "type": "address"
        },
        {
          "internalType": "address",
          "name": "to",
          "type": "address"
        },
        {
          "internalType": "uint256",
          "name": "tokenId",
          "type": "uint256"
        }
      ],
      "name": "transferFrom",
      "outputs": [],
      "stateMutability": "nonpayable",
      "type": "function"
    },
    {
      "inputs": [
        {
          "internalType": "address",
          "name": "newOwner",
          "type": "address"
        }
      ],
      "name": "transferOwnership",
      "outputs": [],
      "stateMutability": "nonpayable",
      "type": "function"
    },
    {
      "inputs": [
        {
          "internalType": "address",
          "name": "",
          "type": "address"
        }
      ],
      "name": "userProfile",
      "outputs": [
        {
          "internalType": "address",
          "name": "userAddr",
          "type": "address"
        },
        {
          "internalType": "string",
          "name": "fullName",
          "type": "string"
        },
        {
          "internalType": "string",
          "name": "gender",
          "type": "string"
        },
        {
          "internalType": "string",
          "name": "email",
          "type": "string"
        },
        {
          "internalType": "uint256",
          "name": "contact",
          "type": "uint256"
        },
        {
          "internalType": "string",
          "name": "residentialAddr",
          "type": "string"
        },
        {
          "internalType": "uint256",
          "name": "totalIndices",
          "type": "uint256"
        },
        {
          "internalType": "uint256",
          "name": "requestIndices",
          "type": "uint256"
        }
      ],
      "stateMutability": "view",
      "type": "function"
    },
    {
      "inputs": [
        {
          "internalType": "address",
          "name": "_adminAddr",
          "type": "address"
        },
        {
          "internalType": "string",
          "name": "_state",
          "type": "string"
        },
        {
          "internalType": "string",
          "name": "_district",
          "type": "string"
        },
        {
          "internalType": "string",
          "name": "_city",
          "type": "string"
        }
      ],
      "name": "addAdmin",
      "outputs": [],
      "stateMutability": "nonpayable",
      "type": "function"
    },
    {
      "inputs": [],
      "name": "isAdmin",
      "outputs": [
        {
          "internalType": "bool",
          "name": "",
          "type": "bool"
        }
      ],
      "stateMutability": "view",
      "type": "function"
    },
    {
      "inputs": [
        {
          "internalType": "string",
          "name": "_state",
          "type": "string"
        },
        {
          "internalType": "string",
          "name": "_district",
          "type": "string"
        },
        {
          "internalType": "string",
          "name": "_city",
          "type": "string"
        },
        {
          "internalType": "uint256",
          "name": "_propertyId",
          "type": "uint256"
        },
        {
          "internalType": "uint256",
          "name": "_surveyNo",
          "type": "uint256"
        },
        {
          "internalType": "address",
          "name": "_owner",
          "type": "address"
        },
        {
          "internalType": "uint256",
          "name": "_marketValue",
          "type": "uint256"
        },
        {
          "internalType": "uint256",
          "name": "_sqft",
          "type": "uint256"
        }
      ],
      "name": "registerLand",
      "outputs": [],
      "stateMutability": "nonpayable",
      "type": "function"
    },
    {
      "inputs": [
        {
          "internalType": "string",
          "name": "_fullName",
          "type": "string"
        },
        {
          "internalType": "string",
          "name": "_gender",
          "type": "string"
        },
        {
          "internalType": "string",
          "name": "_email",
          "type": "string"
        },
        {
          "internalType": "uint256",
          "name": "_contact",
          "type": "uint256"
        },
        {
          "internalType": "string",
          "name": "_residentialAddr",
          "type": "string"
        }
      ],
      "name": "setUserProfile",
      "outputs": [],
      "stateMutability": "nonpayable",
      "type": "function"
    },
    {
      "inputs": [
        {
          "internalType": "uint256",
          "name": "indexNo",
          "type": "uint256"
        }
      ],
      "name": "markMyPropertyAvailable",
      "outputs": [],
      "stateMutability": "nonpayable",
      "type": "function"
    },
    {
      "inputs": [
        {
          "internalType": "string",
          "name": "_state",
          "type": "string"
        },
        {
          "internalType": "string",
          "name": "_district",
          "type": "string"
        },
        {
          "internalType": "string",
          "name": "_city",
          "type": "string"
        },
        {
          "internalType": "uint256",
          "name": "_surveyNo",
          "type": "uint256"
        }
      ],
      "name": "RequestForBuy",
      "outputs": [],
      "stateMutability": "nonpayable",
      "type": "function"
    },
    {
      "inputs": [
        {
          "internalType": "uint256",
          "name": "_index",
          "type": "uint256"
        },
        {
          "internalType": "uint256",
          "name": "_reqNo",
          "type": "uint256"
        }
      ],
      "name": "AcceptRequest",
      "outputs": [],
      "stateMutability": "nonpayable",
      "type": "function"
    },
    {
      "inputs": [
        {
          "internalType": "string",
          "name": "_state",
          "type": "string"
        },
        {
          "internalType": "string",
          "name": "_district",
          "type": "string"
        },
        {
          "internalType": "string",
          "name": "_city",
          "type": "string"
        },
        {
          "internalType": "uint256",
          "name": "_surveyNo",
          "type": "uint256"
        }
      ],
      "name": "getLandDetails",
      "outputs": [
        {
          "internalType": "address",
          "name": "",
          "type": "address"
        },
        {
          "internalType": "uint256",
          "name": "",
          "type": "uint256"
        },
        {
          "internalType": "uint256",
          "name": "",
          "type": "uint256"
        },
        {
          "internalType": "uint256",
          "name": "",
          "type": "uint256"
        },
        {
          "internalType": "uint256",
          "name": "",
          "type": "uint256"
        }
      ],
      "stateMutability": "view",
      "type": "function"
    },
    {
      "inputs": [
        {
          "internalType": "string",
          "name": "_state",
          "type": "string"
        },
        {
          "internalType": "string",
          "name": "_district",
          "type": "string"
        },
        {
          "internalType": "string",
          "name": "_city",
          "type": "string"
        },
        {
          "internalType": "uint256",
          "name": "_surveyNo",
          "type": "uint256"
        }
      ],
      "name": "getRequestCnt_propId",
      "outputs": [
        {
          "internalType": "uint256",
          "name": "",
          "type": "uint256"
        },
        {
          "internalType": "uint256",
          "name": "",
          "type": "uint256"
        }
      ],
      "stateMutability": "view",
      "type": "function"
    },
    {
      "inputs": [
        {
          "internalType": "string",
          "name": "_state",
          "type": "string"
        },
        {
          "internalType": "string",
          "name": "_district",
          "type": "string"
        },
        {
          "internalType": "string",
          "name": "_city",
          "type": "string"
        },
        {
          "internalType": "uint256",
          "name": "_surveyNo",
          "type": "uint256"
        },
        {
          "internalType": "uint256",
          "name": "_reqIndex",
          "type": "uint256"
        }
      ],
      "name": "getRequesterDetail",
      "outputs": [
        {
          "internalType": "address",
          "name": "",
          "type": "address"
        }
      ],
      "stateMutability": "view",
      "type": "function"
    },
    {
      "inputs": [
        {
          "internalType": "string",
          "name": "_state",
          "type": "string"
        },
        {
          "internalType": "string",
          "name": "_district",
          "type": "string"
        },
        {
          "internalType": "string",
          "name": "_city",
          "type": "string"
        },
        {
          "internalType": "uint256",
          "name": "_surveyNo",
          "type": "uint256"
        }
      ],
      "name": "isAvailable",
      "outputs": [
        {
          "internalType": "bool",
          "name": "",
          "type": "bool"
        }
      ],
      "stateMutability": "view",
      "type": "function"
    },
    {
      "inputs": [
        {
          "internalType": "uint256",
          "name": "index",
          "type": "uint256"
        }
      ],
      "name": "getOwnerOwns",
      "outputs": [
        {
          "internalType": "string",
          "name": "",
          "type": "string"
        },
        {
          "internalType": "string",
          "name": "",
          "type": "string"
        },
        {
          "internalType": "string",
          "name": "",
          "type": "string"
        },
        {
          "internalType": "uint256",
          "name": "",
          "type": "uint256"
        }
      ],
      "stateMutability": "view",
      "type": "function"
    },
    {
      "inputs": [
        {
          "internalType": "uint256",
          "name": "index",
          "type": "uint256"
        }
      ],
      "name": "getRequestedLands",
      "outputs": [
        {
          "internalType": "string",
          "name": "",
          "type": "string"
        },
        {
          "internalType": "string",
          "name": "",
          "type": "string"
        },
        {
          "internalType": "string",
          "name": "",
          "type": "string"
        },
        {
          "internalType": "uint256",
          "name": "",
          "type": "uint256"
        }
      ],
      "stateMutability": "view",
      "type": "function"
    },
    {
      "inputs": [],
      "name": "getUserProfile",
      "outputs": [
        {
          "internalType": "string",
          "name": "",
          "type": "string"
        },
        {
          "internalType": "string",
          "name": "",
          "type": "string"
        },
        {
          "internalType": "string",
          "name": "",
          "type": "string"
        },
        {
          "internalType": "uint256",
          "name": "",
          "type": "uint256"
        },
        {
          "internalType": "string",
          "name": "",
          "type": "string"
        }
      ],
      "stateMutability": "view",
      "type": "function"
    },
    {
      "inputs": [],
      "name": "getIndices",
      "outputs": [
        {
          "internalType": "uint256",
          "name": "",
          "type": "uint256"
        },
        {
          "internalType": "uint256",
          "name": "",
          "type": "uint256"
        }
      ],
      "stateMutability": "view",
      "type": "function"
    },
    {
      "inputs": [
        {
          "internalType": "string",
          "name": "_state",
          "type": "string"
        },
        {
          "internalType": "string",
          "name": "_district",
          "type": "string"
        },
        {
          "internalType": "string",
          "name": "_city",
          "type": "string"
        },
        {
          "internalType": "uint256",
          "name": "_surveyNo",
          "type": "uint256"
        }
      ],
      "name": "didIRequested",
      "outputs": [
        {
          "internalType": "bool",
          "name": "",
          "type": "bool"
        }
      ],
      "stateMutability": "view",
      "type": "function"
    }
  ],
  "bytecode": "0x608060405234801562000010575f80fd5b5060405162006f3338038062006f33833981810160405281019062000036919062000373565b338282815f90816200004991906200062d565b5080600190816200005b91906200062d565b5050505f73ffffffffffffffffffffffffffffffffffffffff168173ffffffffffffffffffffffffffffffffffffffff1603620000d1575f6040517f1e4fbdf7000000000000000000000000000000000000000000000000000000008152600401620000c8919062000754565b60405180910390fd5b620000e2816200012b60201b60201c565b503360075f6101000a81548173ffffffffffffffffffffffffffffffffffffffff021916908373ffffffffffffffffffffffffffffffffffffffff16021790555050506200076f565b5f60065f9054906101000a900473ffffffffffffffffffffffffffffffffffffffff1690508160065f6101000a81548173ffffffffffffffffffffffffffffffffffffffff021916908373ffffffffffffffffffffffffffffffffffffffff1602179055508173ffffffffffffffffffffffffffffffffffffffff168173ffffffffffffffffffffffffffffffffffffffff167f8be0079c531659141344cd1fd0a4f28419497f9722a3daafe3b4186f6b6457e060405160405180910390a35050565b5f604051905090565b5f80fd5b5f80fd5b5f80fd5b5f80fd5b5f601f19601f8301169050919050565b7f4e487b71000000000000000000000000000000000000000000000000000000005f52604160045260245ffd5b6200024f8262000207565b810181811067ffffffffffffffff8211171562000271576200027062000217565b5b80604052505050565b5f62000285620001ee565b905062000293828262000244565b919050565b5f67ffffffffffffffff821115620002b557620002b462000217565b5b620002c08262000207565b9050602081019050919050565b5f5b83811015620002ec578082015181840152602081019050620002cf565b5f8484015250505050565b5f6200030d620003078462000298565b6200027a565b9050828152602081018484840111156200032c576200032b62000203565b5b62000339848285620002cd565b509392505050565b5f82601f830112620003585762000357620001ff565b5b81516200036a848260208601620002f7565b91505092915050565b5f80604083850312156200038c576200038b620001f7565b5b5f83015167ffffffffffffffff811115620003ac57620003ab620001fb565b5b620003ba8582860162000341565b925050602083015167ffffffffffffffff811115620003de57620003dd620001fb565b5b620003ec8582860162000341565b9150509250929050565b5f81519050919050565b7f4e487b71000000000000000000000000000000000000000000000000000000005f52602260045260245ffd5b5f60028204905060018216806200044557607f821691505b6020821081036200045b576200045a62000400565b5b50919050565b5f819050815f5260205f209050919050565b5f6020601f8301049050919050565b5f82821b905092915050565b5f60088302620004bf7fffffffffffffffffffffffffffffffffffffffffffffffffffffffffffffffff8262000482565b620004cb868362000482565b95508019841693508086168417925050509392505050565b5f819050919050565b5f819050919050565b5f620005156200050f6200050984620004e3565b620004ec565b620004e3565b9050919050565b5f819050919050565b6200053083620004f5565b620005486200053f826200051c565b8484546200048e565b825550505050565b5f90565b6200055e62000550565b6200056b81848462000525565b505050565b5b818110156200059257620005865f8262000554565b60018101905062000571565b5050565b601f821115620005e157620005ab8162000461565b620005b68462000473565b81016020851015620005c6578190505b620005de620005d58562000473565b83018262000570565b50505b505050565b5f82821c905092915050565b5f620006035f1984600802620005e6565b1980831691505092915050565b5f6200061d8383620005f2565b9150826002028217905092915050565b6200063882620003f6565b67ffffffffffffffff81111562000654576200065362000217565b5b6200066082546200042d565b6200066d82828562000596565b5f60209050601f831160018114620006a3575f84156200068e578287015190505b6200069a858262000610565b86555062000709565b601f198416620006b38662000461565b5f5b82811015620006dc57848901518255600182019150602085019450602081019050620006b5565b86831015620006fc5784890151620006f8601f891682620005f2565b8355505b6001600288020188555050505b505050505050565b5f73ffffffffffffffffffffffffffffffffffffffff82169050919050565b5f6200073c8262000711565b9050919050565b6200074e8162000730565b82525050565b5f602082019050620007695f83018462000743565b92915050565b6167b6806200077d5f395ff3fe608060405234801561000f575f80fd5b506004361061023b575f3560e01c806370a0823111610139578063c87b56dd116100b6578063e985e9c51161007a578063e985e9c51461073f578063eaec23fa1461076f578063eb68048b1461079f578063f2fde38b146107bd578063fc493b8b146107d95761023b565b8063c87b56dd1461065b578063d06efd671461068b578063d1dbeff2146106bc578063d41cc5c8146106ef578063e331ad7c1461070b5761023b565b8063992369da116100fd578063992369da146105b9578063a22cb465146105e9578063b6db75a014610605578063b88d4fde14610623578063bfde241c1461063f5761023b565b806370a0823114610527578063715018a6146105575780638a80e4e4146105615780638da5cb5b1461057d57806395d89b411461059b5761023b565b80632a52ee86116101c757806344e057341161018b57806344e05734146104675780635863056d146104835780636352211e146104a25780636d1b9a8e146104d25780636f61c744146105055761023b565b80632a52ee86146103995780632ca305f3146103b55780633bbd43b3146103e857806342842e0e14610418578063429b62e5146104345761023b565b8063095ea7b31161020e578063095ea7b3146102d95780630e2279af146102f55780631c8e89621461032857806323b872dd1461035f57806329575f6a1461037b5761023b565b806301ffc9a71461023f57806303825d6c1461026f57806306fdde031461028b578063081812fc146102a9575b5f80fd5b61025960048036038101906102549190614f3a565b610812565b6040516102669190614f7f565b60405180910390f35b6102896004803603810190610284919061512e565b6108f3565b005b610293610a9c565b6040516102a09190615260565b60405180910390f35b6102c360048036038101906102be91906152b3565b610b2b565b6040516102d091906152ed565b60405180910390f35b6102f360048036038101906102ee9190615306565b610b46565b005b61030f600480360381019061030a9190615306565b610b5c565b60405161031f9493929190615353565b60405180910390f35b610342600480360381019061033d91906153ab565b610d25565b6040516103569897969594939291906153d6565b60405180910390f35b6103796004803603810190610374919061546e565b610fa0565b005b61038361109f565b60405161039091906152ed565b60405180910390f35b6103b360048036038101906103ae91906154be565b6110c4565b005b6103cf60048036038101906103ca91906152b3565b611705565b6040516103df94939291906155c3565b60405180910390f35b61040260048036038101906103fd919061561b565b611918565b60405161040f91906152ed565b60405180910390f35b610432600480360381019061042d919061546e565b6119c2565b005b61044e600480360381019061044991906153ab565b6119e1565b60405161045e94939291906156e6565b60405180910390f35b610481600480360381019061047c91906152b3565b611bbe565b005b61048b612067565b60405161049992919061573e565b60405180910390f35b6104bc60048036038101906104b791906152b3565b6120bc565b6040516104c991906152ed565b60405180910390f35b6104ec60048036038101906104e791906152b3565b6120cd565b6040516104fc94939291906155c3565b60405180910390f35b61050d6122e0565b60405161051e959493929190615765565b60405180910390f35b610541600480360381019061053c91906153ab565b612577565b60405161054e91906157d2565b60405180910390f35b61055f61262d565b005b61057b600480360381019061057691906157eb565b612640565b005b6105856128f2565b60405161059291906152ed565b60405180910390f35b6105a361291a565b6040516105b09190615260565b60405180910390f35b6105d360048036038101906105ce91906157eb565b6129aa565b6040516105e09190614f7f565b60405180910390f35b61060360048036038101906105fe91906158cd565b612a2a565b005b61060d612a40565b60405161061a9190614f7f565b60405180910390f35b61063d600480360381019061063891906159a9565b612ad4565b005b61065960048036038101906106549190615a29565b612af1565b005b610675600480360381019061067091906152b3565b612b8a565b6040516106829190615260565b60405180910390f35b6106a560048036038101906106a091906157eb565b612bf0565b6040516106b392919061573e565b60405180910390f35b6106d660048036038101906106d19190615306565b612c72565b6040516106e69493929190615353565b60405180910390f35b61070960048036038101906107049190615b10565b612e3b565b005b610725600480360381019061072091906157eb565b613ad3565b604051610736959493929190615b4e565b60405180910390f35b61075960048036038101906107549190615b9f565b613b8d565b6040516107669190614f7f565b60405180910390f35b610789600480360381019061078491906157eb565b613c1b565b6040516107969190614f7f565b60405180910390f35b6107a7613d2b565b6040516107b491906157d2565b60405180910390f35b6107d760048036038101906107d291906153ab565b613d31565b005b6107f360048036038101906107ee91906157eb565b613db5565b6040516108099a99989796959493929190615bdd565b60405180910390f35b5f7f80ac58cd000000000000000000000000000000000000000000000000000000007bffffffffffffffffffffffffffffffffffffffffffffffffffffffff1916827bffffffffffffffffffffffffffffffffffffffffffffffffffffffff191614806108dc57507f5b5e139f000000000000000000000000000000000000000000000000000000007bffffffffffffffffffffffffffffffffffffffffffffffffffffffff1916827bffffffffffffffffffffffffffffffffffffffffffffffffffffffff1916145b806108ec57506108eb82613ec4565b5b9050919050565b6108fb613f2d565b5f73ffffffffffffffffffffffffffffffffffffffff1660095f8673ffffffffffffffffffffffffffffffffffffffff1673ffffffffffffffffffffffffffffffffffffffff1681526020019081526020015f205f015f9054906101000a900473ffffffffffffffffffffffffffffffffffffffff1673ffffffffffffffffffffffffffffffffffffffff16146109c7576040517f08c379a00000000000000000000000000000000000000000000000000000000081526004016109be90615cc1565b60405180910390fd5b5f60095f8673ffffffffffffffffffffffffffffffffffffffff1673ffffffffffffffffffffffffffffffffffffffff1681526020019081526020015f20905060085f815480929190610a1990615d0c565b919050555084815f015f6101000a81548173ffffffffffffffffffffffffffffffffffffffff021916908373ffffffffffffffffffffffffffffffffffffffff16021790555081816001019081610a709190615f4d565b5082816002019081610a829190615f4d565b5083816003019081610a949190615f4d565b505050505050565b60605f8054610aaa90615d80565b80601f0160208091040260200160405190810160405280929190818152602001828054610ad690615d80565b8015610b215780601f10610af857610100808354040283529160200191610b21565b820191905f5260205f20905b815481529060010190602001808311610b0457829003601f168201915b5050505050905090565b5f610b3582613fb4565b50610b3f8261403a565b9050919050565b610b588282610b53614073565b61407a565b5050565b600b602052815f5260405f20602052805f5260405f205f9150915050805f015490806001018054610b8c90615d80565b80601f0160208091040260200160405190810160405280929190818152602001828054610bb890615d80565b8015610c035780601f10610bda57610100808354040283529160200191610c03565b820191905f5260205f20905b815481529060010190602001808311610be657829003601f168201915b505050505090806002018054610c1890615d80565b80601f0160208091040260200160405190810160405280929190818152602001828054610c4490615d80565b8015610c8f5780601f10610c6657610100808354040283529160200191610c8f565b820191905f5260205f20905b815481529060010190602001808311610c7257829003601f168201915b505050505090806003018054610ca490615d80565b80601f0160208091040260200160405190810160405280929190818152602001828054610cd090615d80565b8015610d1b5780601f10610cf257610100808354040283529160200191610d1b565b820191905f5260205f20905b815481529060010190602001808311610cfe57829003601f168201915b5050505050905084565b600d602052805f5260405f205f91509050805f015f9054906101000a900473ffffffffffffffffffffffffffffffffffffffff1690806001018054610d6990615d80565b80601f0160208091040260200160405190810160405280929190818152602001828054610d9590615d80565b8015610de05780601f10610db757610100808354040283529160200191610de0565b820191905f5260205f20905b815481529060010190602001808311610dc357829003601f168201915b505050505090806002018054610df590615d80565b80601f0160208091040260200160405190810160405280929190818152602001828054610e2190615d80565b8015610e6c5780601f10610e4357610100808354040283529160200191610e6c565b820191905f5260205f20905b815481529060010190602001808311610e4f57829003601f168201915b505050505090806003018054610e8190615d80565b80601f0160208091040260200160405190810160405280929190818152602001828054610ead90615d80565b8015610ef85780601f10610ecf57610100808354040283529160200191610ef8565b820191905f5260205f20905b815481529060010190602001808311610edb57829003601f168201915b505050505090806004015490806005018054610f1390615d80565b80601f0160208091040260200160405190810160405280929190818152602001828054610f3f90615d80565b8015610f8a5780601f10610f6157610100808354040283529160200191610f8a565b820191905f5260205f20905b815481529060010190602001808311610f6d57829003601f168201915b5050505050908060060154908060070154905088565b5f73ffffffffffffffffffffffffffffffffffffffff168273ffffffffffffffffffffffffffffffffffffffff1603611010575f6040517f64a0ae9200000000000000000000000000000000000000000000000000000000815260040161100791906152ed565b60405180910390fd5b5f611023838361101e614073565b61408c565b90508373ffffffffffffffffffffffffffffffffffffffff168173ffffffffffffffffffffffffffffffffffffffff1614611099578382826040517f64283d7b0000000000000000000000000000000000000000000000000000000081526004016110909392919061601c565b60405180910390fd5b50505050565b60075f9054906101000a900473ffffffffffffffffffffffffffffffffffffffff1681565b5f73ffffffffffffffffffffffffffffffffffffffff1660095f3373ffffffffffffffffffffffffffffffffffffffff1673ffffffffffffffffffffffffffffffffffffffff1681526020019081526020015f205f015f9054906101000a900473ffffffffffffffffffffffffffffffffffffffff1673ffffffffffffffffffffffffffffffffffffffff1603611190576040517f08c379a00000000000000000000000000000000000000000000000000000000081526004016111879061609b565b60405180910390fd5b876040516020016111a191906160f3565b6040516020818303038152906040528051906020012060095f3373ffffffffffffffffffffffffffffffffffffffff1673ffffffffffffffffffffffffffffffffffffffff1681526020019081526020015f206003016040516020016112079190616189565b604051602081830303815290604052805190602001201480156112b457508660405160200161123691906160f3565b6040516020818303038152906040528051906020012060095f3373ffffffffffffffffffffffffffffffffffffffff1673ffffffffffffffffffffffffffffffffffffffff1681526020019081526020015f2060020160405160200161129c9190616189565b60405160208183030381529060405280519060200120145b801561134a5750856040516020016112cc91906160f3565b6040516020818303038152906040528051906020012060095f3373ffffffffffffffffffffffffffffffffffffffff1673ffffffffffffffffffffffffffffffffffffffff1681526020019081526020015f206001016040516020016113329190616189565b60405160208183030381529060405280519060200120145b611389576040517f08c379a00000000000000000000000000000000000000000000000000000000081526004016113809061620f565b60405180910390fd5b600c8860405161139991906160f3565b9081526020016040518091039020876040516113b591906160f3565b9081526020016040518091039020866040516113d191906160f3565b90815260200160405180910390205f8581526020019081526020015f206005015f9054906101000a900460ff161561143e576040517f08c379a00000000000000000000000000000000000000000000000000000000081526004016114359061629d565b60405180910390fd5b5f600c8960405161144f91906160f3565b90815260200160405180910390208860405161146b91906160f3565b90815260200160405180910390208760405161148791906160f3565b90815260200160405180910390205f8681526020019081526020015f2090505f600a5f8673ffffffffffffffffffffffffffffffffffffffff1673ffffffffffffffffffffffffffffffffffffffff1681526020019081526020015f205f600d5f8873ffffffffffffffffffffffffffffffffffffffff1673ffffffffffffffffffffffffffffffffffffffff1681526020019081526020015f206006015481526020019081526020015f20905084825f015f6101000a81548173ffffffffffffffffffffffffffffffffffffffff021916908373ffffffffffffffffffffffffffffffffffffffff16021790555033826001015f6101000a81548173ffffffffffffffffffffffffffffffffffffffff021916908373ffffffffffffffffffffffffffffffffffffffff160217905550868260020181905550858260030181905550600d5f8673ffffffffffffffffffffffffffffffffffffffff1673ffffffffffffffffffffffffffffffffffffffff1681526020019081526020015f206006015482600401819055506001826005015f6101000a81548160ff0219169083151502179055508382600601819055505f826007015f6101000a81548160ff0219169083151502179055508282600a018190555085815f0181905550898160010190816116759190615f4d565b50888160020190816116879190615f4d565b50878160030190816116999190615f4d565b50600d5f8673ffffffffffffffffffffffffffffffffffffffff1673ffffffffffffffffffffffffffffffffffffffff1681526020019081526020015f206006015f8154809291906116ea90615d0c565b91905055506116f98588614297565b50505050505050505050565b60608060605f80600b5f3373ffffffffffffffffffffffffffffffffffffffff1673ffffffffffffffffffffffffffffffffffffffff1681526020019081526020015f205f8781526020019081526020015f209050806001018160020182600301835f015483805461177690615d80565b80601f01602080910402602001604051908101604052809291908181526020018280546117a290615d80565b80156117ed5780601f106117c4576101008083540402835291602001916117ed565b820191905f5260205f20905b8154815290600101906020018083116117d057829003601f168201915b5050505050935082805461180090615d80565b80601f016020809104026020016040519081016040528092919081815260200182805461182c90615d80565b80156118775780601f1061184e57610100808354040283529160200191611877565b820191905f5260205f20905b81548152906001019060200180831161185a57829003601f168201915b5050505050925081805461188a90615d80565b80601f01602080910402602001604051908101604052809291908181526020018280546118b690615d80565b80156119015780601f106118d857610100808354040283529160200191611901565b820191905f5260205f20905b8154815290600101906020018083116118e457829003601f168201915b505050505091509450945094509450509193509193565b5f80600c8760405161192a91906160f3565b90815260200160405180910390208660405161194691906160f3565b90815260200160405180910390208560405161196291906160f3565b90815260200160405180910390205f8581526020019081526020015f209050806008015f8481526020019081526020015f205f015f9054906101000a900473ffffffffffffffffffffffffffffffffffffffff1691505095945050505050565b6119dc83838360405180602001604052805f815250612ad4565b505050565b6009602052805f5260405f205f91509050805f015f9054906101000a900473ffffffffffffffffffffffffffffffffffffffff1690806001018054611a2590615d80565b80601f0160208091040260200160405190810160405280929190818152602001828054611a5190615d80565b8015611a9c5780601f10611a7357610100808354040283529160200191611a9c565b820191905f5260205f20905b815481529060010190602001808311611a7f57829003601f168201915b505050505090806002018054611ab190615d80565b80601f0160208091040260200160405190810160405280929190818152602001828054611add90615d80565b8015611b285780601f10611aff57610100808354040283529160200191611b28565b820191905f5260205f20905b815481529060010190602001808311611b0b57829003601f168201915b505050505090806003018054611b3d90615d80565b80601f0160208091040260200160405190810160405280929190818152602001828054611b6990615d80565b8015611bb45780601f10611b8b57610100808354040283529160200191611bb4565b820191905f5260205f20905b815481529060010190602001808311611b9757829003601f168201915b5050505050905084565b5f600a5f3373ffffffffffffffffffffffffffffffffffffffff1673ffffffffffffffffffffffffffffffffffffffff1681526020019081526020015f205f8381526020019081526020015f205f015403611c4e576040517f08c379a0000000000000000000000000000000000000000000000000000000008152600401611c4590616305565b60405180910390fd5b5f600a5f3373ffffffffffffffffffffffffffffffffffffffff1673ffffffffffffffffffffffffffffffffffffffff1681526020019081526020015f205f8381526020019081526020015f206001018054611ca990615d80565b80601f0160208091040260200160405190810160405280929190818152602001828054611cd590615d80565b8015611d205780601f10611cf757610100808354040283529160200191611d20565b820191905f5260205f20905b815481529060010190602001808311611d0357829003601f168201915b505050505090505f600a5f3373ffffffffffffffffffffffffffffffffffffffff1673ffffffffffffffffffffffffffffffffffffffff1681526020019081526020015f205f8481526020019081526020015f206002018054611d8290615d80565b80601f0160208091040260200160405190810160405280929190818152602001828054611dae90615d80565b8015611df95780601f10611dd057610100808354040283529160200191611df9565b820191905f5260205f20905b815481529060010190602001808311611ddc57829003601f168201915b505050505090505f600a5f3373ffffffffffffffffffffffffffffffffffffffff1673ffffffffffffffffffffffffffffffffffffffff1681526020019081526020015f205f8581526020019081526020015f206003018054611e5b90615d80565b80601f0160208091040260200160405190810160405280929190818152602001828054611e8790615d80565b8015611ed25780601f10611ea957610100808354040283529160200191611ed2565b820191905f5260205f20905b815481529060010190602001808311611eb557829003601f168201915b505050505090505f600a5f3373ffffffffffffffffffffffffffffffffffffffff1673ffffffffffffffffffffffffffffffffffffffff1681526020019081526020015f205f8681526020019081526020015f205f01549050600c84604051611f3b91906160f3565b908152602001604051809103902083604051611f5791906160f3565b908152602001604051809103902082604051611f7391906160f3565b90815260200160405180910390205f8281526020019081526020015f206007015f9054906101000a900460ff1615611fe0576040517f08c379a0000000000000000000000000000000000000000000000000000000008152600401611fd790616393565b60405180910390fd5b6001600c85604051611ff291906160f3565b90815260200160405180910390208460405161200e91906160f3565b90815260200160405180910390208360405161202a91906160f3565b90815260200160405180910390205f8381526020019081526020015f206007015f6101000a81548160ff0219169083151502179055505050505050565b5f805f600d5f3373ffffffffffffffffffffffffffffffffffffffff1673ffffffffffffffffffffffffffffffffffffffff1681526020019081526020015f2090508060060154816007015492509250509091565b5f6120c682613fb4565b9050919050565b60608060605f80600a5f3373ffffffffffffffffffffffffffffffffffffffff1673ffffffffffffffffffffffffffffffffffffffff1681526020019081526020015f205f8781526020019081526020015f209050806001018160020182600301835f015483805461213e90615d80565b80601f016020809104026020016040519081016040528092919081815260200182805461216a90615d80565b80156121b55780601f1061218c576101008083540402835291602001916121b5565b820191905f5260205f20905b81548152906001019060200180831161219857829003601f168201915b505050505093508280546121c890615d80565b80601f01602080910402602001604051908101604052809291908181526020018280546121f490615d80565b801561223f5780601f106122165761010080835404028352916020019161223f565b820191905f5260205f20905b81548152906001019060200180831161222257829003601f168201915b5050505050925081805461225290615d80565b80601f016020809104026020016040519081016040528092919081815260200182805461227e90615d80565b80156122c95780601f106122a0576101008083540402835291602001916122c9565b820191905f5260205f20905b8154815290600101906020018083116122ac57829003601f168201915b505050505091509450945094509450509193509193565b60608060605f60605f600d5f3373ffffffffffffffffffffffffffffffffffffffff1673ffffffffffffffffffffffffffffffffffffffff1681526020019081526020015f20905080600101816002018260030183600401548460050184805461234990615d80565b80601f016020809104026020016040519081016040528092919081815260200182805461237590615d80565b80156123c05780601f10612397576101008083540402835291602001916123c0565b820191905f5260205f20905b8154815290600101906020018083116123a357829003601f168201915b505050505094508380546123d390615d80565b80601f01602080910402602001604051908101604052809291908181526020018280546123ff90615d80565b801561244a5780601f106124215761010080835404028352916020019161244a565b820191905f5260205f20905b81548152906001019060200180831161242d57829003601f168201915b5050505050935082805461245d90615d80565b80601f016020809104026020016040519081016040528092919081815260200182805461248990615d80565b80156124d45780601f106124ab576101008083540402835291602001916124d4565b820191905f5260205f20905b8154815290600101906020018083116124b757829003601f168201915b505050505092508080546124e790615d80565b80601f016020809104026020016040519081016040528092919081815260200182805461251390615d80565b801561255e5780601f106125355761010080835404028352916020019161255e565b820191905f5260205f20905b81548152906001019060200180831161254157829003601f168201915b5050505050905095509550955095509550509091929394565b5f8073ffffffffffffffffffffffffffffffffffffffff168273ffffffffffffffffffffffffffffffffffffffff16036125e8575f6040517f89c62b640000000000000000000000000000000000000000000000000000000081526004016125df91906152ed565b60405180910390fd5b60035f8373ffffffffffffffffffffffffffffffffffffffff1673ffffffffffffffffffffffffffffffffffffffff1681526020019081526020015f20549050919050565b612635613f2d565b61263e5f61438a565b565b5f600c8560405161265191906160f3565b90815260200160405180910390208460405161266d91906160f3565b90815260200160405180910390208360405161268991906160f3565b90815260200160405180910390205f8381526020019081526020015f209050806007015f9054906101000a900460ff166126f8576040517f08c379a00000000000000000000000000000000000000000000000000000000081526004016126ef90616421565b60405180910390fd5b5f8160090154905033826008015f8381526020019081526020015f205f015f6101000a81548173ffffffffffffffffffffffffffffffffffffffff021916908373ffffffffffffffffffffffffffffffffffffffff160217905550600d5f3373ffffffffffffffffffffffffffffffffffffffff1673ffffffffffffffffffffffffffffffffffffffff1681526020019081526020015f2060070154826008015f8381526020019081526020015f2060010181905550816009015f8154809291906127c290615d0c565b91905055505f600b5f3373ffffffffffffffffffffffffffffffffffffffff1673ffffffffffffffffffffffffffffffffffffffff1681526020019081526020015f205f600d5f3373ffffffffffffffffffffffffffffffffffffffff1673ffffffffffffffffffffffffffffffffffffffff1681526020019081526020015f206007015481526020019081526020015f20905083815f01819055508681600101908161286f9190615f4d565b50858160020190816128819190615f4d565b50848160030190816128939190615f4d565b50600d5f3373ffffffffffffffffffffffffffffffffffffffff1673ffffffffffffffffffffffffffffffffffffffff1681526020019081526020015f206007015f8154809291906128e490615d0c565b919050555050505050505050565b5f60065f9054906101000a900473ffffffffffffffffffffffffffffffffffffffff16905090565b60606001805461292990615d80565b80601f016020809104026020016040519081016040528092919081815260200182805461295590615d80565b80156129a05780601f10612977576101008083540402835291602001916129a0565b820191905f5260205f20905b81548152906001019060200180831161298357829003601f168201915b5050505050905090565b5f600c856040516129bb91906160f3565b9081526020016040518091039020846040516129d791906160f3565b9081526020016040518091039020836040516129f391906160f3565b90815260200160405180910390205f8381526020019081526020015f206007015f9054906101000a900460ff169050949350505050565b612a3c612a35614073565b838361444d565b5050565b5f8073ffffffffffffffffffffffffffffffffffffffff1660095f3373ffffffffffffffffffffffffffffffffffffffff1673ffffffffffffffffffffffffffffffffffffffff1681526020019081526020015f205f015f9054906101000a900473ffffffffffffffffffffffffffffffffffffffff1673ffffffffffffffffffffffffffffffffffffffff161415905090565b612adf848484610fa0565b612aeb848484846145b6565b50505050565b5f600d5f3373ffffffffffffffffffffffffffffffffffffffff1673ffffffffffffffffffffffffffffffffffffffff1681526020019081526020015f20905085816001019081612b429190615f4d565b5084816002019081612b549190615f4d565b5083816003019081612b669190615f4d565b5082816004018190555081816005019081612b819190615f4d565b50505050505050565b6060612b9582613fb4565b505f612b9f614768565b90505f815111612bbd5760405180602001604052805f815250612be8565b80612bc78461477e565b604051602001612bd892919061643f565b6040516020818303038152906040525b915050919050565b5f805f600c87604051612c0391906160f3565b908152602001604051809103902086604051612c1f91906160f3565b908152602001604051809103902085604051612c3b91906160f3565b90815260200160405180910390205f8581526020019081526020015f20905080600901548160020154925092505094509492505050565b600a602052815f5260405f20602052805f5260405f205f9150915050805f015490806001018054612ca290615d80565b80601f0160208091040260200160405190810160405280929190818152602001828054612cce90615d80565b8015612d195780601f10612cf057610100808354040283529160200191612d19565b820191905f5260205f20905b815481529060010190602001808311612cfc57829003601f168201915b505050505090806002018054612d2e90615d80565b80601f0160208091040260200160405190810160405280929190818152602001828054612d5a90615d80565b8015612da55780601f10612d7c57610100808354040283529160200191612da5565b820191905f5260205f20905b815481529060010190602001808311612d8857829003601f168201915b505050505090806003018054612dba90615d80565b80601f0160208091040260200160405190810160405280929190818152602001828054612de690615d80565b8015612e315780601f10612e0857610100808354040283529160200191612e31565b820191905f5260205f20905b815481529060010190602001808311612e1457829003601f168201915b5050505050905084565b5f600a5f3373ffffffffffffffffffffffffffffffffffffffff1673ffffffffffffffffffffffffffffffffffffffff1681526020019081526020015f205f8481526020019081526020015f205f015403612ecb576040517f08c379a0000000000000000000000000000000000000000000000000000000008152600401612ec290616305565b60405180910390fd5b5f600a5f3373ffffffffffffffffffffffffffffffffffffffff1673ffffffffffffffffffffffffffffffffffffffff1681526020019081526020015f205f8481526020019081526020015f205f015490505f600a5f3373ffffffffffffffffffffffffffffffffffffffff1673ffffffffffffffffffffffffffffffffffffffff1681526020019081526020015f205f8581526020019081526020015f206001018054612f7890615d80565b80601f0160208091040260200160405190810160405280929190818152602001828054612fa490615d80565b8015612fef5780601f10612fc657610100808354040283529160200191612fef565b820191905f5260205f20905b815481529060010190602001808311612fd257829003601f168201915b505050505090505f600a5f3373ffffffffffffffffffffffffffffffffffffffff1673ffffffffffffffffffffffffffffffffffffffff1681526020019081526020015f205f8681526020019081526020015f20600201805461305190615d80565b80601f016020809104026020016040519081016040528092919081815260200182805461307d90615d80565b80156130c85780601f1061309f576101008083540402835291602001916130c8565b820191905f5260205f20905b8154815290600101906020018083116130ab57829003601f168201915b505050505090505f600a5f3373ffffffffffffffffffffffffffffffffffffffff1673ffffffffffffffffffffffffffffffffffffffff1681526020019081526020015f205f8781526020019081526020015f20600301805461312a90615d80565b80601f016020809104026020016040519081016040528092919081815260200182805461315690615d80565b80156131a15780601f10613178576101008083540402835291602001916131a1565b820191905f5260205f20905b81548152906001019060200180831161318457829003601f168201915b505050505090505f600c846040516131b991906160f3565b9081526020016040518091039020836040516131d591906160f3565b9081526020016040518091039020826040516131f191906160f3565b90815260200160405180910390205f8681526020019081526020015f2090505f816008015f8881526020019081526020015f205f015f9054906101000a900473ffffffffffffffffffffffffffffffffffffffff1690505f73ffffffffffffffffffffffffffffffffffffffff168173ffffffffffffffffffffffffffffffffffffffff16036132b6576040517f08c379a00000000000000000000000000000000000000000000000000000000081526004016132ad906164ac565b60405180910390fd5b5f5b82600901548110156135dd575f836008015f8381526020019081526020015f205f015f9054906101000a900473ffffffffffffffffffffffffffffffffffffffff1690505f73ffffffffffffffffffffffffffffffffffffffff168173ffffffffffffffffffffffffffffffffffffffff16146135c9575f846008015f8481526020019081526020015f206001015490505f8190505b6001600d5f8573ffffffffffffffffffffffffffffffffffffffff1673ffffffffffffffffffffffffffffffffffffffff1681526020019081526020015f206007015461339b91906164ca565b8110156134a357600b5f8473ffffffffffffffffffffffffffffffffffffffff1673ffffffffffffffffffffffffffffffffffffffff1681526020019081526020015f205f6001836133ed91906164fd565b81526020019081526020015f20600b5f8573ffffffffffffffffffffffffffffffffffffffff1673ffffffffffffffffffffffffffffffffffffffff1681526020019081526020015f205f8381526020019081526020015f205f820154815f0155600182018160010190816134629190616545565b50600282018160020190816134779190616545565b506003820181600301908161348c9190616545565b50905050808061349b90615d0c565b91505061334e565b50600b5f8373ffffffffffffffffffffffffffffffffffffffff1673ffffffffffffffffffffffffffffffffffffffff1681526020019081526020015f205f6001600d5f8673ffffffffffffffffffffffffffffffffffffffff1673ffffffffffffffffffffffffffffffffffffffff1681526020019081526020015f206007015461352f91906164ca565b81526020019081526020015f205f8082015f9055600182015f6135529190614e7c565b600282015f6135619190614e7c565b600382015f6135709190614e7c565b5050600d5f8373ffffffffffffffffffffffffffffffffffffffff1673ffffffffffffffffffffffffffffffffffffffff1681526020019081526020015f206007015f8154809291906135c29061662a565b9190505550505b5080806135d590615d0c565b9150506132b8565b505f8260090181905550600a5f3373ffffffffffffffffffffffffffffffffffffffff1673ffffffffffffffffffffffffffffffffffffffff1681526020019081526020015f205f8981526020019081526020015f20600a5f8373ffffffffffffffffffffffffffffffffffffffff1673ffffffffffffffffffffffffffffffffffffffff1681526020019081526020015f205f600d5f8573ffffffffffffffffffffffffffffffffffffffff1673ffffffffffffffffffffffffffffffffffffffff1681526020019081526020015f206006015481526020019081526020015f205f820154815f0155600182018160010190816136db9190616545565b50600282018160020190816136f09190616545565b50600382018160030190816137059190616545565b50905050600d5f8273ffffffffffffffffffffffffffffffffffffffff1673ffffffffffffffffffffffffffffffffffffffff1681526020019081526020015f206006015f81548092919061375990615d0c565b9190505550600a5f3373ffffffffffffffffffffffffffffffffffffffff1673ffffffffffffffffffffffffffffffffffffffff1681526020019081526020015f205f8981526020019081526020015f205f8082015f9055600182015f6137c09190614e7c565b600282015f6137cf9190614e7c565b600382015f6137de9190614e7c565b50505f8890505b6001600d5f3373ffffffffffffffffffffffffffffffffffffffff1673ffffffffffffffffffffffffffffffffffffffff1681526020019081526020015f206006015461383291906164ca565b81101561393a57600a5f3373ffffffffffffffffffffffffffffffffffffffff1673ffffffffffffffffffffffffffffffffffffffff1681526020019081526020015f205f60018361388491906164fd565b81526020019081526020015f20600a5f3373ffffffffffffffffffffffffffffffffffffffff1673ffffffffffffffffffffffffffffffffffffffff1681526020019081526020015f205f8381526020019081526020015f205f820154815f0155600182018160010190816138f99190616545565b506002820181600201908161390e9190616545565b50600382018160030190816139239190616545565b50905050808061393290615d0c565b9150506137e5565b50600a5f3373ffffffffffffffffffffffffffffffffffffffff1673ffffffffffffffffffffffffffffffffffffffff1681526020019081526020015f205f6001600d5f3373ffffffffffffffffffffffffffffffffffffffff1673ffffffffffffffffffffffffffffffffffffffff1681526020019081526020015f20600601546139c691906164ca565b81526020019081526020015f205f8082015f9055600182015f6139e99190614e7c565b600282015f6139f89190614e7c565b600382015f613a079190614e7c565b5050600d5f3373ffffffffffffffffffffffffffffffffffffffff1673ffffffffffffffffffffffffffffffffffffffff1681526020019081526020015f206006015f815480929190613a599061662a565b919050555080825f015f6101000a81548173ffffffffffffffffffffffffffffffffffffffff021916908373ffffffffffffffffffffffffffffffffffffffff1602179055505f826007015f6101000a81548160ff021916908315150217905550613ac933828460020154614848565b5050505050505050565b5f805f805f80600c8a604051613ae991906160f3565b908152602001604051809103902089604051613b0591906160f3565b908152602001604051809103902088604051613b2191906160f3565b90815260200160405180910390205f8881526020019081526020015f209050805f015f9054906101000a900473ffffffffffffffffffffffffffffffffffffffff1681600201548260040154836006015484600a01549550955095509550955050945094509450945094565b5f60055f8473ffffffffffffffffffffffffffffffffffffffff1673ffffffffffffffffffffffffffffffffffffffff1681526020019081526020015f205f8373ffffffffffffffffffffffffffffffffffffffff1673ffffffffffffffffffffffffffffffffffffffff1681526020019081526020015f205f9054906101000a900460ff16905092915050565b5f80600c86604051613c2d91906160f3565b908152602001604051809103902085604051613c4991906160f3565b908152602001604051809103902084604051613c6591906160f3565b90815260200160405180910390205f8481526020019081526020015f2090505f816009015490505f5b81811015613d1c573373ffffffffffffffffffffffffffffffffffffffff16836008015f8381526020019081526020015f205f015f9054906101000a900473ffffffffffffffffffffffffffffffffffffffff1673ffffffffffffffffffffffffffffffffffffffff1603613d095760019350505050613d23565b8080613d1490615d0c565b915050613c8e565b505f925050505b949350505050565b60085481565b613d39613f2d565b5f73ffffffffffffffffffffffffffffffffffffffff168173ffffffffffffffffffffffffffffffffffffffff1603613da9575f6040517f1e4fbdf7000000000000000000000000000000000000000000000000000000008152600401613da091906152ed565b60405180910390fd5b613db28161438a565b50565b600c848051602081018201805184825260208301602085012081835280955050505050508380516020810182018051848252602083016020850120818352809550505050505082805160208101820180518482526020830160208501208183528095505050505050602052805f5260405f205f93509350505050805f015f9054906101000a900473ffffffffffffffffffffffffffffffffffffffff1690806001015f9054906101000a900473ffffffffffffffffffffffffffffffffffffffff1690806002015490806003015490806004015490806005015f9054906101000a900460ff1690806006015490806007015f9054906101000a900460ff169080600901549080600a015490508a565b5f7f01ffc9a7000000000000000000000000000000000000000000000000000000007bffffffffffffffffffffffffffffffffffffffffffffffffffffffff1916827bffffffffffffffffffffffffffffffffffffffffffffffffffffffff1916149050919050565b613f35614073565b73ffffffffffffffffffffffffffffffffffffffff16613f536128f2565b73ffffffffffffffffffffffffffffffffffffffff1614613fb257613f76614073565b6040517f118cdaa7000000000000000000000000000000000000000000000000000000008152600401613fa991906152ed565b60405180910390fd5b565b5f80613fbf836149b0565b90505f73ffffffffffffffffffffffffffffffffffffffff168173ffffffffffffffffffffffffffffffffffffffff160361403157826040517f7e27328900000000000000000000000000000000000000000000000000000000815260040161402891906157d2565b60405180910390fd5b80915050919050565b5f60045f8381526020019081526020015f205f9054906101000a900473ffffffffffffffffffffffffffffffffffffffff169050919050565b5f33905090565b61408783838360016149e9565b505050565b5f80614097846149b0565b90505f73ffffffffffffffffffffffffffffffffffffffff168373ffffffffffffffffffffffffffffffffffffffff16146140d8576140d7818486614ba8565b5b5f73ffffffffffffffffffffffffffffffffffffffff168173ffffffffffffffffffffffffffffffffffffffff1614614163576141175f855f806149e9565b600160035f8373ffffffffffffffffffffffffffffffffffffffff1673ffffffffffffffffffffffffffffffffffffffff1681526020019081526020015f205f82825403925050819055505b5f73ffffffffffffffffffffffffffffffffffffffff168573ffffffffffffffffffffffffffffffffffffffff16146141e257600160035f8773ffffffffffffffffffffffffffffffffffffffff1673ffffffffffffffffffffffffffffffffffffffff1681526020019081526020015f205f82825401925050819055505b8460025f8681526020019081526020015f205f6101000a81548173ffffffffffffffffffffffffffffffffffffffff021916908373ffffffffffffffffffffffffffffffffffffffff160217905550838573ffffffffffffffffffffffffffffffffffffffff168273ffffffffffffffffffffffffffffffffffffffff167fddf252ad1be2c89b69c2b068fc378daa952ba7f163c4a11628f55a4df523b3ef60405160405180910390a4809150509392505050565b5f73ffffffffffffffffffffffffffffffffffffffff168273ffffffffffffffffffffffffffffffffffffffff1603614307575f6040517f64a0ae920000000000000000000000000000000000000000000000000000000081526004016142fe91906152ed565b60405180910390fd5b5f61431383835f61408c565b90505f73ffffffffffffffffffffffffffffffffffffffff168173ffffffffffffffffffffffffffffffffffffffff1614614385575f6040517f73c6ac6e00000000000000000000000000000000000000000000000000000000815260040161437c91906152ed565b60405180910390fd5b505050565b5f60065f9054906101000a900473ffffffffffffffffffffffffffffffffffffffff1690508160065f6101000a81548173ffffffffffffffffffffffffffffffffffffffff021916908373ffffffffffffffffffffffffffffffffffffffff1602179055508173ffffffffffffffffffffffffffffffffffffffff168173ffffffffffffffffffffffffffffffffffffffff167f8be0079c531659141344cd1fd0a4f28419497f9722a3daafe3b4186f6b6457e060405160405180910390a35050565b5f73ffffffffffffffffffffffffffffffffffffffff168273ffffffffffffffffffffffffffffffffffffffff16036144bd57816040517f5b08ba180000000000000000000000000000000000000000000000000000000081526004016144b491906152ed565b60405180910390fd5b8060055f8573ffffffffffffffffffffffffffffffffffffffff1673ffffffffffffffffffffffffffffffffffffffff1681526020019081526020015f205f8473ffffffffffffffffffffffffffffffffffffffff1673ffffffffffffffffffffffffffffffffffffffff1681526020019081526020015f205f6101000a81548160ff0219169083151502179055508173ffffffffffffffffffffffffffffffffffffffff168373ffffffffffffffffffffffffffffffffffffffff167f17307eab39ab6107e8899845ad3d59bd9653f200f220920489ca2b5937696c31836040516145a99190614f7f565b60405180910390a3505050565b5f8373ffffffffffffffffffffffffffffffffffffffff163b1115614762578273ffffffffffffffffffffffffffffffffffffffff1663150b7a026145f9614073565b8685856040518563ffffffff1660e01b815260040161461b94939291906166a3565b6020604051808303815f875af192505050801561465657506040513d601f19601f820116820180604052508101906146539190616701565b60015b6146d7573d805f8114614684576040519150601f19603f3d011682016040523d82523d5f602084013e614689565b606091505b505f8151036146cf57836040517f64a0ae920000000000000000000000000000000000000000000000000000000081526004016146c691906152ed565b60405180910390fd5b805181602001fd5b63150b7a0260e01b7bffffffffffffffffffffffffffffffffffffffffffffffffffffffff1916817bffffffffffffffffffffffffffffffffffffffffffffffffffffffff19161461476057836040517f64a0ae9200000000000000000000000000000000000000000000000000000000815260040161475791906152ed565b60405180910390fd5b505b50505050565b606060405180602001604052805f815250905090565b60605f600161478c84614c6b565b0190505f8167ffffffffffffffff8111156147aa576147a961500a565b5b6040519080825280601f01601f1916602001820160405280156147dc5781602001600182028036833780820191505090505b5090505f82602001820190505b60011561483d578080600190039150507f3031323334353637383961626364656600000000000000000000000000000000600a86061a8153600a85816148325761483161672c565b5b0494505f85036147e9575b819350505050919050565b5f73ffffffffffffffffffffffffffffffffffffffff168273ffffffffffffffffffffffffffffffffffffffff16036148b8575f6040517f64a0ae920000000000000000000000000000000000000000000000000000000081526004016148af91906152ed565b60405180910390fd5b5f6148c483835f61408c565b90505f73ffffffffffffffffffffffffffffffffffffffff168173ffffffffffffffffffffffffffffffffffffffff160361493657816040517f7e27328900000000000000000000000000000000000000000000000000000000815260040161492d91906157d2565b60405180910390fd5b8373ffffffffffffffffffffffffffffffffffffffff168173ffffffffffffffffffffffffffffffffffffffff16146149aa578382826040517f64283d7b0000000000000000000000000000000000000000000000000000000081526004016149a19392919061601c565b60405180910390fd5b50505050565b5f60025f8381526020019081526020015f205f9054906101000a900473ffffffffffffffffffffffffffffffffffffffff169050919050565b8080614a2157505f73ffffffffffffffffffffffffffffffffffffffff168273ffffffffffffffffffffffffffffffffffffffff1614155b15614b53575f614a3084613fb4565b90505f73ffffffffffffffffffffffffffffffffffffffff168373ffffffffffffffffffffffffffffffffffffffff1614158015614a9a57508273ffffffffffffffffffffffffffffffffffffffff168173ffffffffffffffffffffffffffffffffffffffff1614155b8015614aad5750614aab8184613b8d565b155b15614aef57826040517fa9fbf51f000000000000000000000000000000000000000000000000000000008152600401614ae691906152ed565b60405180910390fd5b8115614b5157838573ffffffffffffffffffffffffffffffffffffffff168273ffffffffffffffffffffffffffffffffffffffff167f8c5be1e5ebec7d5bd14f71427d1e84f3dd0314c0f7b2291e5b200ac8c7c3b92560405160405180910390a45b505b8360045f8581526020019081526020015f205f6101000a81548173ffffffffffffffffffffffffffffffffffffffff021916908373ffffffffffffffffffffffffffffffffffffffff16021790555050505050565b614bb3838383614dbc565b614c66575f73ffffffffffffffffffffffffffffffffffffffff168373ffffffffffffffffffffffffffffffffffffffff1603614c2757806040517f7e273289000000000000000000000000000000000000000000000000000000008152600401614c1e91906157d2565b60405180910390fd5b81816040517f177e802f000000000000000000000000000000000000000000000000000000008152600401614c5d929190616759565b60405180910390fd5b505050565b5f805f90507a184f03e93ff9f4daa797ed6e38ed64bf6a1f0100000000000000008310614cc7577a184f03e93ff9f4daa797ed6e38ed64bf6a1f0100000000000000008381614cbd57614cbc61672c565b5b0492506040810190505b6d04ee2d6d415b85acef81000000008310614d04576d04ee2d6d415b85acef81000000008381614cfa57614cf961672c565b5b0492506020810190505b662386f26fc100008310614d3357662386f26fc100008381614d2957614d2861672c565b5b0492506010810190505b6305f5e1008310614d5c576305f5e1008381614d5257614d5161672c565b5b0492506008810190505b6127108310614d81576127108381614d7757614d7661672c565b5b0492506004810190505b60648310614da45760648381614d9a57614d9961672c565b5b0492506002810190505b600a8310614db3576001810190505b80915050919050565b5f8073ffffffffffffffffffffffffffffffffffffffff168373ffffffffffffffffffffffffffffffffffffffff1614158015614e7357508273ffffffffffffffffffffffffffffffffffffffff168473ffffffffffffffffffffffffffffffffffffffff161480614e345750614e338484613b8d565b5b80614e7257508273ffffffffffffffffffffffffffffffffffffffff16614e5a8361403a565b73ffffffffffffffffffffffffffffffffffffffff16145b5b90509392505050565b508054614e8890615d80565b5f825580601f10614e995750614eb6565b601f0160209004905f5260205f2090810190614eb59190614eb9565b5b50565b5b80821115614ed0575f815f905550600101614eba565b5090565b5f604051905090565b5f80fd5b5f80fd5b5f7fffffffff0000000000000000000000000000000000000000000000000000000082169050919050565b614f1981614ee5565b8114614f23575f80fd5b50565b5f81359050614f3481614f10565b92915050565b5f60208284031215614f4f57614f4e614edd565b5b5f614f5c84828501614f26565b91505092915050565b5f8115159050919050565b614f7981614f65565b82525050565b5f602082019050614f925f830184614f70565b92915050565b5f73ffffffffffffffffffffffffffffffffffffffff82169050919050565b5f614fc182614f98565b9050919050565b614fd181614fb7565b8114614fdb575f80fd5b50565b5f81359050614fec81614fc8565b92915050565b5f80fd5b5f80fd5b5f601f19601f8301169050919050565b7f4e487b71000000000000000000000000000000000000000000000000000000005f52604160045260245ffd5b61504082614ffa565b810181811067ffffffffffffffff8211171561505f5761505e61500a565b5b80604052505050565b5f615071614ed4565b905061507d8282615037565b919050565b5f67ffffffffffffffff82111561509c5761509b61500a565b5b6150a582614ffa565b9050602081019050919050565b828183375f83830152505050565b5f6150d26150cd84615082565b615068565b9050828152602081018484840111156150ee576150ed614ff6565b5b6150f98482856150b2565b509392505050565b5f82601f83011261511557615114614ff2565b5b81356151258482602086016150c0565b91505092915050565b5f805f806080858703121561514657615145614edd565b5b5f61515387828801614fde565b945050602085013567ffffffffffffffff81111561517457615173614ee1565b5b61518087828801615101565b935050604085013567ffffffffffffffff8111156151a1576151a0614ee1565b5b6151ad87828801615101565b925050606085013567ffffffffffffffff8111156151ce576151cd614ee1565b5b6151da87828801615101565b91505092959194509250565b5f81519050919050565b5f82825260208201905092915050565b5f5b8381101561521d578082015181840152602081019050615202565b5f8484015250505050565b5f615232826151e6565b61523c81856151f0565b935061524c818560208601615200565b61525581614ffa565b840191505092915050565b5f6020820190508181035f8301526152788184615228565b905092915050565b5f819050919050565b61529281615280565b811461529c575f80fd5b50565b5f813590506152ad81615289565b92915050565b5f602082840312156152c8576152c7614edd565b5b5f6152d58482850161529f565b91505092915050565b6152e781614fb7565b82525050565b5f6020820190506153005f8301846152de565b92915050565b5f806040838503121561531c5761531b614edd565b5b5f61532985828601614fde565b925050602061533a8582860161529f565b9150509250929050565b61534d81615280565b82525050565b5f6080820190506153665f830187615344565b81810360208301526153788186615228565b9050818103604083015261538c8185615228565b905081810360608301526153a08184615228565b905095945050505050565b5f602082840312156153c0576153bf614edd565b5b5f6153cd84828501614fde565b91505092915050565b5f610100820190506153ea5f83018b6152de565b81810360208301526153fc818a615228565b905081810360408301526154108189615228565b905081810360608301526154248188615228565b90506154336080830187615344565b81810360a08301526154458186615228565b905061545460c0830185615344565b61546160e0830184615344565b9998505050505050505050565b5f805f6060848603121561548557615484614edd565b5b5f61549286828701614fde565b93505060206154a386828701614fde565b92505060406154b48682870161529f565b9150509250925092565b5f805f805f805f80610100898b0312156154db576154da614edd565b5b5f89013567ffffffffffffffff8111156154f8576154f7614ee1565b5b6155048b828c01615101565b985050602089013567ffffffffffffffff81111561552557615524614ee1565b5b6155318b828c01615101565b975050604089013567ffffffffffffffff81111561555257615551614ee1565b5b61555e8b828c01615101565b965050606061556f8b828c0161529f565b95505060806155808b828c0161529f565b94505060a06155918b828c01614fde565b93505060c06155a28b828c0161529f565b92505060e06155b38b828c0161529f565b9150509295985092959890939650565b5f6080820190508181035f8301526155db8187615228565b905081810360208301526155ef8186615228565b905081810360408301526156038185615228565b90506156126060830184615344565b95945050505050565b5f805f805f60a0868803121561563457615633614edd565b5b5f86013567ffffffffffffffff81111561565157615650614ee1565b5b61565d88828901615101565b955050602086013567ffffffffffffffff81111561567e5761567d614ee1565b5b61568a88828901615101565b945050604086013567ffffffffffffffff8111156156ab576156aa614ee1565b5b6156b788828901615101565b93505060606156c88882890161529f565b92505060806156d98882890161529f565b9150509295509295909350565b5f6080820190506156f95f8301876152de565b818103602083015261570b8186615228565b9050818103604083015261571f8185615228565b905081810360608301526157338184615228565b905095945050505050565b5f6040820190506157515f830185615344565b61575e6020830184615344565b9392505050565b5f60a0820190508181035f83015261577d8188615228565b905081810360208301526157918187615228565b905081810360408301526157a58186615228565b90506157b46060830185615344565b81810360808301526157c68184615228565b90509695505050505050565b5f6020820190506157e55f830184615344565b92915050565b5f805f806080858703121561580357615802614edd565b5b5f85013567ffffffffffffffff8111156158205761581f614ee1565b5b61582c87828801615101565b945050602085013567ffffffffffffffff81111561584d5761584c614ee1565b5b61585987828801615101565b935050604085013567ffffffffffffffff81111561587a57615879614ee1565b5b61588687828801615101565b92505060606158978782880161529f565b91505092959194509250565b6158ac81614f65565b81146158b6575f80fd5b50565b5f813590506158c7816158a3565b92915050565b5f80604083850312156158e3576158e2614edd565b5b5f6158f085828601614fde565b9250506020615901858286016158b9565b9150509250929050565b5f67ffffffffffffffff8211156159255761592461500a565b5b61592e82614ffa565b9050602081019050919050565b5f61594d6159488461590b565b615068565b90508281526020810184848401111561596957615968614ff6565b5b6159748482856150b2565b509392505050565b5f82601f8301126159905761598f614ff2565b5b81356159a084826020860161593b565b91505092915050565b5f805f80608085870312156159c1576159c0614edd565b5b5f6159ce87828801614fde565b94505060206159df87828801614fde565b93505060406159f08782880161529f565b925050606085013567ffffffffffffffff811115615a1157615a10614ee1565b5b615a1d8782880161597c565b91505092959194509250565b5f805f805f60a08688031215615a4257615a41614edd565b5b5f86013567ffffffffffffffff811115615a5f57615a5e614ee1565b5b615a6b88828901615101565b955050602086013567ffffffffffffffff811115615a8c57615a8b614ee1565b5b615a9888828901615101565b945050604086013567ffffffffffffffff811115615ab957615ab8614ee1565b5b615ac588828901615101565b9350506060615ad68882890161529f565b925050608086013567ffffffffffffffff811115615af757615af6614ee1565b5b615b0388828901615101565b9150509295509295909350565b5f8060408385031215615b2657615b25614edd565b5b5f615b338582860161529f565b9250506020615b448582860161529f565b9150509250929050565b5f60a082019050615b615f8301886152de565b615b6e6020830187615344565b615b7b6040830186615344565b615b886060830185615344565b615b956080830184615344565b9695505050505050565b5f8060408385031215615bb557615bb4614edd565b5b5f615bc285828601614fde565b9250506020615bd385828601614fde565b9150509250929050565b5f61014082019050615bf15f83018d6152de565b615bfe602083018c6152de565b615c0b604083018b615344565b615c18606083018a615344565b615c256080830189615344565b615c3260a0830188614f70565b615c3f60c0830187615344565b615c4c60e0830186614f70565b615c5a610100830185615344565b615c68610120830184615344565b9b9a5050505050505050505050565b7f41646d696e20616c7265616479206578697374730000000000000000000000005f82015250565b5f615cab6014836151f0565b9150615cb682615c77565b602082019050919050565b5f6020820190508181035f830152615cd881615c9f565b9050919050565b7f4e487b71000000000000000000000000000000000000000000000000000000005f52601160045260245ffd5b5f615d1682615280565b91507fffffffffffffffffffffffffffffffffffffffffffffffffffffffffffffffff8203615d4857615d47615cdf565b5b600182019050919050565b7f4e487b71000000000000000000000000000000000000000000000000000000005f52602260045260245ffd5b5f6002820490506001821680615d9757607f821691505b602082108103615daa57615da9615d53565b5b50919050565b5f819050815f5260205f209050919050565b5f6020601f8301049050919050565b5f82821b905092915050565b5f60088302615e0c7fffffffffffffffffffffffffffffffffffffffffffffffffffffffffffffffff82615dd1565b615e168683615dd1565b95508019841693508086168417925050509392505050565b5f819050919050565b5f615e51615e4c615e4784615280565b615e2e565b615280565b9050919050565b5f819050919050565b615e6a83615e37565b615e7e615e7682615e58565b848454615ddd565b825550505050565b5f90565b615e92615e86565b615e9d818484615e61565b505050565b5b81811015615ec057615eb55f82615e8a565b600181019050615ea3565b5050565b601f821115615f0557615ed681615db0565b615edf84615dc2565b81016020851015615eee578190505b615f02615efa85615dc2565b830182615ea2565b50505b505050565b5f82821c905092915050565b5f615f255f1984600802615f0a565b1980831691505092915050565b5f615f3d8383615f16565b9150826002028217905092915050565b615f56826151e6565b67ffffffffffffffff811115615f6f57615f6e61500a565b5b615f798254615d80565b615f84828285615ec4565b5f60209050601f831160018114615fb5575f8415615fa3578287015190505b615fad8582615f32565b865550616014565b601f198416615fc386615db0565b5f5b82811015615fea57848901518255600182019150602085019450602081019050615fc5565b868310156160075784890151616003601f891682615f16565b8355505b6001600288020188555050505b505050505050565b5f60608201905061602f5f8301866152de565b61603c6020830185615344565b61604960408301846152de565b949350505050565b7f4f6e6c792061646d696e2063616e207265676973746572206c616e64000000005f82015250565b5f616085601c836151f0565b915061609082616051565b602082019050919050565b5f6020820190508181035f8301526160b281616079565b9050919050565b5f81905092915050565b5f6160cd826151e6565b6160d781856160b9565b93506160e7818560208601615200565b80840191505092915050565b5f6160fe82846160c3565b915081905092915050565b5f815461611581615d80565b61611f81866160b9565b9450600182165f8114616139576001811461614e57616180565b60ff1983168652811515820286019350616180565b61615785615db0565b5f5b8381101561617857815481890152600182019150602081019050616159565b838801955050505b50505092915050565b5f6161948284616109565b915081905092915050565b7f41646d696e2063616e206f6e6c79207265676973746572206c616e64206f66205f8201527f7468652073616d6520636974792e000000000000000000000000000000000000602082015250565b5f6161f9602e836151f0565b91506162048261619f565b604082019050919050565b5f6020820190508181035f830152616226816161ed565b9050919050565b7f537572766579204e756d62657220616c726561647920726567697374657265645f8201527f2100000000000000000000000000000000000000000000000000000000000000602082015250565b5f6162876021836151f0565b91506162928261622d565b604082019050919050565b5f6020820190508181035f8301526162b48161627b565b9050919050565b7f50726f706572747920646f6573206e6f742065786973740000000000000000005f82015250565b5f6162ef6017836151f0565b91506162fa826162bb565b602082019050919050565b5f6020820190508181035f83015261631c816162e3565b9050919050565b7f50726f706572747920616c7265616479206d61726b656420617661696c61626c5f8201527f6500000000000000000000000000000000000000000000000000000000000000602082015250565b5f61637d6021836151f0565b915061638882616323565b604082019050919050565b5f6020820190508181035f8301526163aa81616371565b9050919050565b7f546869732070726f7065727479206973204e4f54206d61726b656420666f72205f8201527f73616c6521000000000000000000000000000000000000000000000000000000602082015250565b5f61640b6025836151f0565b9150616416826163b1565b604082019050919050565b5f6020820190508181035f830152616438816163ff565b9050919050565b5f61644a82856160c3565b915061645682846160c3565b91508190509392505050565b7f496e76616c6964207265717565737400000000000000000000000000000000005f82015250565b5f616496600f836151f0565b91506164a182616462565b602082019050919050565b5f6020820190508181035f8301526164c38161648a565b9050919050565b5f6164d482615280565b91506164df83615280565b92508282039050818111156164f7576164f6615cdf565b5b92915050565b5f61650782615280565b915061651283615280565b925082820190508082111561652a57616529615cdf565b5b92915050565b5f8154905061653e81615d80565b9050919050565b818103616553575050616628565b61655c82616530565b67ffffffffffffffff8111156165755761657461500a565b5b61657f8254615d80565b61658a828285615ec4565b5f601f8311600181146165b7575f84156165a5578287015490505b6165af8582615f32565b865550616621565b601f1984166165c587615db0565b96506165d086615db0565b5f5b828110156165f7578489015482556001820191506001850194506020810190506165d2565b868310156166145784890154616610601f891682615f16565b8355505b6001600288020188555050505b5050505050505b565b5f61663482615280565b91505f820361664657616645615cdf565b5b600182039050919050565b5f81519050919050565b5f82825260208201905092915050565b5f61667582616651565b61667f818561665b565b935061668f818560208601615200565b61669881614ffa565b840191505092915050565b5f6080820190506166b65f8301876152de565b6166c360208301866152de565b6166d06040830185615344565b81810360608301526166e2818461666b565b905095945050505050565b5f815190506166fb81614f10565b92915050565b5f6020828403121561671657616715614edd565b5b5f616723848285016166ed565b91505092915050565b7f4e487b71000000000000000000000000000000000000000000000000000000005f52601260045260245ffd5b5f60408201905061676c5f8301856152de565b6167796020830184615344565b939250505056fea2646970667358221220731a03743c4daf992bb309cf097b2445e36ca9c43662ca85a116b397dde1077a64736f6c63430008140033",
  "immutableReferences": {},
  "source": "// SPDX-License-Identifier: MIT\npragma solidity >=0.5.0 <0.9.0;\n\nimport \"@openzeppelin/contracts/token/ERC721/ERC721.sol\";\nimport \"@openzeppelin/contracts/access/Ownable.sol\";\n\ncontract Registry is ERC721, Ownable {\n \n    address public superAdmin;\n    uint public totalAdmins;\n\n    struct Admin {\n        address adminAddress;\n        string city;\n        string district;\n        string state;\n    }\n\n    struct LandDetails {\n        address owner;\n        address admin;\n        uint256 propertyId;\n        uint surveyNumber;\n        uint index;\n        bool registered;\n        uint marketValue;\n        bool markAvailable;\n        mapping(uint => RequestDetails) requests;\n        uint noOfRequests;\n        uint sqft;\n    }\n\n    struct UserProfile {\n        address userAddr;\n        string fullName;\n        string gender;\n        string email;\n        uint256 contact;\n        string residentialAddr;\n        uint totalIndices;\n        uint requestIndices;\n    }\n\n    struct OwnerOwns {\n        uint surveyNumber;\n        string state;\n        string district;\n        string city;\n    }\n\n    struct RequestedLands {\n        uint surveyNumber;\n        string state;\n        string district;\n        string city;\n    }\n\n    struct RequestDetails {\n        address whoRequested;\n        uint reqIndex;\n    }\n\n    mapping(address => Admin) public admins;\n    mapping(address => mapping(uint => OwnerOwns)) public ownerMapsProperty;\n    mapping(address => mapping(uint => RequestedLands)) public requestedLands;\n    mapping(string => mapping(string => mapping(string => mapping(uint => LandDetails)))) public landDetailsMap;\n    mapping(address => UserProfile) public userProfile;\n\n    constructor(string memory _name, string memory _symbol) ERC721(_name, _symbol) Ownable(msg.sender) {\n        superAdmin = msg.sender;\n    }\n\n    modifier onlyAdmin() {\n        require(admins[msg.sender].adminAddress != address(0), \"Only admin can register land\");\n        _;\n    }\n\n    function addAdmin(address _adminAddr, string memory _state, string memory _district, string memory _city) external onlyOwner {\n        require(admins[_adminAddr].adminAddress == address(0), \"Admin already exists\");\n\n        Admin storage newAdmin = admins[_adminAddr];\n        totalAdmins++;\n\n        newAdmin.adminAddress = _adminAddr;\n        newAdmin.city = _city;\n        newAdmin.district = _district;\n        newAdmin.state = _state;\n    }\n\n    function isAdmin() external view returns (bool) {\n        return admins[msg.sender].adminAddress != address(0);\n    }\n\n    function registerLand(\n        string memory _state,\n        string memory _district,\n        string memory _city,\n        uint256 _propertyId,\n        uint _surveyNo,\n        address _owner,\n        uint _marketValue,\n        uint _sqft\n    ) external onlyAdmin {\n        require(\n            keccak256(abi.encodePacked(admins[msg.sender].state)) == keccak256(abi.encodePacked(_state)) &&\n            keccak256(abi.encodePacked(admins[msg.sender].district)) == keccak256(abi.encodePacked(_district)) &&\n            keccak256(abi.encodePacked(admins[msg.sender].city)) == keccak256(abi.encodePacked(_city)),\n            \"Admin can only register land of the same city.\"\n        );\n\n        require(!landDetailsMap[_state][_district][_city][_surveyNo].registered, \"Survey Number already registered!\");\n\n        LandDetails storage newLandRegistry = landDetailsMap[_state][_district][_city][_surveyNo];\n        OwnerOwns storage newOwnerOwns = ownerMapsProperty[_owner][userProfile[_owner].totalIndices];\n\n        newLandRegistry.owner = _owner;\n        newLandRegistry.admin = msg.sender;\n        newLandRegistry.propertyId = _propertyId;\n        newLandRegistry.surveyNumber = _surveyNo;\n        newLandRegistry.index = userProfile[_owner].totalIndices;\n        newLandRegistry.registered = true;\n        newLandRegistry.marketValue = _marketValue;\n        newLandRegistry.markAvailable = false;\n        newLandRegistry.sqft = _sqft;\n\n        newOwnerOwns.surveyNumber = _surveyNo;\n        newOwnerOwns.state = _state;\n        newOwnerOwns.district = _district;\n        newOwnerOwns.city = _city;\n\n        userProfile[_owner].totalIndices++;\n\n        _mint(_owner, _propertyId);\n    }\n\n    function setUserProfile(string memory _fullName, string memory _gender, string memory _email, uint256 _contact, string memory _residentialAddr) external {\n        UserProfile storage newUserProfile = userProfile[msg.sender];\n\n        newUserProfile.fullName = _fullName;\n        newUserProfile.gender = _gender;\n        newUserProfile.email = _email;\n        newUserProfile.contact = _contact;\n        newUserProfile.residentialAddr = _residentialAddr;\n    }\n\n    function markMyPropertyAvailable(uint indexNo) external {\n        require(ownerMapsProperty[msg.sender][indexNo].surveyNumber != 0, \"Property does not exist\");\n\n        string memory state = ownerMapsProperty[msg.sender][indexNo].state;\n        string memory district = ownerMapsProperty[msg.sender][indexNo].district;\n        string memory city = ownerMapsProperty[msg.sender][indexNo].city;\n        uint surveyNumber = ownerMapsProperty[msg.sender][indexNo].surveyNumber;\n\n        require(!landDetailsMap[state][district][city][surveyNumber].markAvailable, \"Property already marked available\");\n\n        landDetailsMap[state][district][city][surveyNumber].markAvailable = true;\n    }\n\n    function RequestForBuy(string memory _state, string memory _district, string memory _city, uint _surveyNo) external {\n        LandDetails storage thisLandDetail = landDetailsMap[_state][_district][_city][_surveyNo];\n        require(thisLandDetail.markAvailable, \"This property is NOT marked for sale!\");\n\n        uint req_serialNum = thisLandDetail.noOfRequests;\n        thisLandDetail.requests[req_serialNum].whoRequested = msg.sender;\n        thisLandDetail.requests[req_serialNum].reqIndex = userProfile[msg.sender].requestIndices;\n        thisLandDetail.noOfRequests++;\n\n        RequestedLands storage newRequestedLands = requestedLands[msg.sender][userProfile[msg.sender].requestIndices];\n        newRequestedLands.surveyNumber = _surveyNo;\n        newRequestedLands.state = _state;\n        newRequestedLands.district = _district;\n        newRequestedLands.city = _city;\n\n        userProfile[msg.sender].requestIndices++;\n    }\n\n    function AcceptRequest(uint _index, uint _reqNo) external {\n        require(ownerMapsProperty[msg.sender][_index].surveyNumber != 0, \"Property does not exist\");\n\n        uint _surveyNo = ownerMapsProperty[msg.sender][_index].surveyNumber;\n        string memory _state = ownerMapsProperty[msg.sender][_index].state;\n        string memory _district = ownerMapsProperty[msg.sender][_index].district;\n        string memory _city = ownerMapsProperty[msg.sender][_index].city;\n\n        LandDetails storage landDetail = landDetailsMap[_state][_district][_city][_surveyNo];\n        address newOwner = landDetail.requests[_reqNo].whoRequested;\n\n        require(newOwner != address(0), \"Invalid request\");\n\n        for (uint i = 0; i < landDetail.noOfRequests; i++) {\n            address del_reqAddr = landDetail.requests[i].whoRequested;\n            if (del_reqAddr != address(0)) {\n                uint del_index = landDetail.requests[i].reqIndex;\n                for (uint j = del_index; j < userProfile[del_reqAddr].requestIndices - 1; j++) {\n                    requestedLands[del_reqAddr][j] = requestedLands[del_reqAddr][j + 1];\n                }\n                delete requestedLands[del_reqAddr][userProfile[del_reqAddr].requestIndices - 1];\n                userProfile[del_reqAddr].requestIndices--;\n            }\n        }\n        landDetail.noOfRequests = 0;\n\n        ownerMapsProperty[newOwner][userProfile[newOwner].totalIndices] = ownerMapsProperty[msg.sender][_index];\n        userProfile[newOwner].totalIndices++;\n\n        delete ownerMapsProperty[msg.sender][_index];\n        for (uint i = _index; i < userProfile[msg.sender].totalIndices - 1; i++) {\n            ownerMapsProperty[msg.sender][i] = ownerMapsProperty[msg.sender][i + 1];\n        }\n        delete ownerMapsProperty[msg.sender][userProfile[msg.sender].totalIndices - 1];\n        userProfile[msg.sender].totalIndices--;\n\n        landDetail.owner = newOwner;\n        landDetail.markAvailable = false;\n\n        _transfer(msg.sender, newOwner, landDetail.propertyId);\n    }\n\n    function getLandDetails(string memory _state, string memory _district, string memory _city, uint _surveyNo) external view returns (address, uint256, uint, uint, uint) {\n        LandDetails storage land = landDetailsMap[_state][_district][_city][_surveyNo];\n        return (land.owner, land.propertyId, land.index, land.marketValue, land.sqft);\n    }\n\n    function getRequestCnt_propId(string memory _state, string memory _district, string memory _city, uint _surveyNo) external view returns (uint, uint256) {\n        LandDetails storage land = landDetailsMap[_state][_district][_city][_surveyNo];\n        return (land.noOfRequests, land.propertyId);\n    }\n\n    function getRequesterDetail(string memory _state, string memory _district, string memory _city, uint _surveyNo, uint _reqIndex) external view returns (address) {\n        LandDetails storage land = landDetailsMap[_state][_district][_city][_surveyNo];\n        return (land.requests[_reqIndex].whoRequested);\n    }\n\n    function isAvailable(string memory _state, string memory _district, string memory _city, uint _surveyNo) external view returns (bool) {\n        return landDetailsMap[_state][_district][_city][_surveyNo].markAvailable;\n    }\n\n    function getOwnerOwns(uint index) external view returns (string memory, string memory, string memory, uint) {\n        OwnerOwns storage ownerOwns = ownerMapsProperty[msg.sender][index];\n        return (ownerOwns.state, ownerOwns.district, ownerOwns.city, ownerOwns.surveyNumber);\n    }\n\n    function getRequestedLands(uint index) external view returns (string memory, string memory, string memory, uint) {\n        RequestedLands storage request = requestedLands[msg.sender][index];\n        return (request.state, request.district, request.city, request.surveyNumber);\n    }\n\n    function getUserProfile() external view returns (string memory, string memory, string memory, uint256, string memory) {\n        UserProfile storage user = userProfile[msg.sender];\n        return (user.fullName, user.gender, user.email, user.contact, user.residentialAddr);\n    }\n\n    function getIndices() external view returns (uint, uint) {\n        UserProfile storage user = userProfile[msg.sender];\n        return (user.totalIndices, user.requestIndices);\n    }\n\n    function didIRequested(string memory _state, string memory _district, string memory _city, uint _surveyNo) external view returns (bool) {\n        LandDetails storage landDetail = landDetailsMap[_state][_district][_city][_surveyNo];\n        uint noOfRequests = landDetail.noOfRequests;\n\n        for (uint i = 0; i < noOfRequests; i++) {\n            if (landDetail.requests[i].whoRequested == msg.sender) {\n                return true;\n            }\n        }\n        return false;\n    }\n}\n",
  "sourcePath": "D:\\React\\Land-registration\\contracts\\Registry.sol",
  "compiler": {
    "name": "solc",
    "version": "0.8.20+commit.a1b79de6.Emscripten.clang"
  },
  "schemaVersion": "3.4.16",
  "updatedAt": "2024-06-21T08:23:34.720Z",
  "devdoc": {
    "errors": {
      "ERC721IncorrectOwner(address,uint256,address)": [
        {
          "details": "Indicates an error related to the ownership over a particular token. Used in transfers.",
          "params": {
            "owner": "Address of the current owner of a token.",
            "sender": "Address whose tokens are being transferred.",
            "tokenId": "Identifier number of a token."
          }
        }
      ],
      "ERC721InsufficientApproval(address,uint256)": [
        {
          "details": "Indicates a failure with the `operator`s approval. Used in transfers.",
          "params": {
            "operator": "Address that may be allowed to operate on tokens without being their owner.",
            "tokenId": "Identifier number of a token."
          }
        }
      ],
      "ERC721InvalidApprover(address)": [
        {
          "details": "Indicates a failure with the `approver` of a token to be approved. Used in approvals.",
          "params": {
            "approver": "Address initiating an approval operation."
          }
        }
      ],
      "ERC721InvalidOperator(address)": [
        {
          "details": "Indicates a failure with the `operator` to be approved. Used in approvals.",
          "params": {
            "operator": "Address that may be allowed to operate on tokens without being their owner."
          }
        }
      ],
      "ERC721InvalidOwner(address)": [
        {
          "details": "Indicates that an address can't be an owner. For example, `address(0)` is a forbidden owner in EIP-20. Used in balance queries.",
          "params": {
            "owner": "Address of the current owner of a token."
          }
        }
      ],
      "ERC721InvalidReceiver(address)": [
        {
          "details": "Indicates a failure with the token `receiver`. Used in transfers.",
          "params": {
            "receiver": "Address to which tokens are being transferred."
          }
        }
      ],
      "ERC721InvalidSender(address)": [
        {
          "details": "Indicates a failure with the token `sender`. Used in transfers.",
          "params": {
            "sender": "Address whose tokens are being transferred."
          }
        }
      ],
      "ERC721NonexistentToken(uint256)": [
        {
          "details": "Indicates a `tokenId` whose `owner` is the zero address.",
          "params": {
            "tokenId": "Identifier number of a token."
          }
        }
      ],
      "OwnableInvalidOwner(address)": [
        {
          "details": "The owner is not a valid owner account. (eg. `address(0)`)"
        }
      ],
      "OwnableUnauthorizedAccount(address)": [
        {
          "details": "The caller account is not authorized to perform an operation."
        }
      ]
    },
    "events": {
      "Approval(address,address,uint256)": {
        "details": "Emitted when `owner` enables `approved` to manage the `tokenId` token."
      },
      "ApprovalForAll(address,address,bool)": {
        "details": "Emitted when `owner` enables or disables (`approved`) `operator` to manage all of its assets."
      },
      "Transfer(address,address,uint256)": {
        "details": "Emitted when `tokenId` token is transferred from `from` to `to`."
      }
    },
    "kind": "dev",
    "methods": {
      "approve(address,uint256)": {
        "details": "See {IERC721-approve}."
      },
      "balanceOf(address)": {
        "details": "See {IERC721-balanceOf}."
      },
      "getApproved(uint256)": {
        "details": "See {IERC721-getApproved}."
      },
      "isApprovedForAll(address,address)": {
        "details": "See {IERC721-isApprovedForAll}."
      },
      "name()": {
        "details": "See {IERC721Metadata-name}."
      },
      "owner()": {
        "details": "Returns the address of the current owner."
      },
      "ownerOf(uint256)": {
        "details": "See {IERC721-ownerOf}."
      },
      "renounceOwnership()": {
        "details": "Leaves the contract without owner. It will not be possible to call `onlyOwner` functions. Can only be called by the current owner. NOTE: Renouncing ownership will leave the contract without an owner, thereby disabling any functionality that is only available to the owner."
      },
      "safeTransferFrom(address,address,uint256)": {
        "details": "See {IERC721-safeTransferFrom}."
      },
      "safeTransferFrom(address,address,uint256,bytes)": {
        "details": "See {IERC721-safeTransferFrom}."
      },
      "setApprovalForAll(address,bool)": {
        "details": "See {IERC721-setApprovalForAll}."
      },
      "supportsInterface(bytes4)": {
        "details": "See {IERC165-supportsInterface}."
      },
      "symbol()": {
        "details": "See {IERC721Metadata-symbol}."
      },
      "tokenURI(uint256)": {
        "details": "See {IERC721Metadata-tokenURI}."
      },
      "transferFrom(address,address,uint256)": {
        "details": "See {IERC721-transferFrom}."
      },
      "transferOwnership(address)": {
        "details": "Transfers ownership of the contract to a new account (`newOwner`). Can only be called by the current owner."
      }
    },
    "version": 1
  },
  "userdoc": {
    "kind": "user",
    "methods": {},
    "version": 1
  }
}